{
  "_format": "hh-sol-artifact-1",
  "contractName": "RVotes",
  "sourceName": "contracts/RVotes.sol",
  "abi": [
    {
      "inputs": [],
      "stateMutability": "nonpayable",
      "type": "constructor"
    },
    {
      "anonymous": false,
      "inputs": [
        {
          "indexed": true,
          "internalType": "address",
          "name": "owner",
          "type": "address"
        },
        {
          "indexed": true,
          "internalType": "address",
          "name": "approved",
          "type": "address"
        },
        {
          "indexed": true,
          "internalType": "uint256",
          "name": "tokenId",
          "type": "uint256"
        }
      ],
      "name": "Approval",
      "type": "event"
    },
    {
      "anonymous": false,
      "inputs": [
        {
          "indexed": true,
          "internalType": "address",
          "name": "owner",
          "type": "address"
        },
        {
          "indexed": true,
          "internalType": "address",
          "name": "operator",
          "type": "address"
        },
        {
          "indexed": false,
          "internalType": "bool",
          "name": "approved",
          "type": "bool"
        }
      ],
      "name": "ApprovalForAll",
      "type": "event"
    },
    {
      "anonymous": false,
      "inputs": [
        {
          "indexed": true,
          "internalType": "address",
          "name": "previousOwner",
          "type": "address"
        },
        {
          "indexed": true,
          "internalType": "address",
          "name": "newOwner",
          "type": "address"
        }
      ],
      "name": "OwnershipTransferred",
      "type": "event"
    },
    {
      "anonymous": false,
      "inputs": [
        {
          "indexed": false,
          "internalType": "address",
          "name": "account",
          "type": "address"
        }
      ],
      "name": "Paused",
      "type": "event"
    },
    {
      "anonymous": false,
      "inputs": [
        {
          "indexed": true,
          "internalType": "address",
          "name": "from",
          "type": "address"
        },
        {
          "indexed": true,
          "internalType": "address",
          "name": "to",
          "type": "address"
        },
        {
          "indexed": true,
          "internalType": "uint256",
          "name": "tokenId",
          "type": "uint256"
        }
      ],
      "name": "Transfer",
      "type": "event"
    },
    {
      "anonymous": false,
      "inputs": [
        {
          "indexed": false,
          "internalType": "address",
          "name": "account",
          "type": "address"
        }
      ],
      "name": "Unpaused",
      "type": "event"
    },
    {
      "inputs": [
        {
          "internalType": "address",
          "name": "to",
          "type": "address"
        },
        {
          "internalType": "uint256",
          "name": "amount",
          "type": "uint256"
        }
      ],
      "name": "_awardReputation",
      "outputs": [],
      "stateMutability": "nonpayable",
      "type": "function"
    },
    {
      "inputs": [
        {
          "internalType": "uint256",
          "name": "timeElapsed",
          "type": "uint256"
        }
      ],
      "name": "_expireTokens",
      "outputs": [],
      "stateMutability": "nonpayable",
      "type": "function"
    },
    {
      "inputs": [
        {
          "internalType": "address",
          "name": "to",
          "type": "address"
        },
        {
          "internalType": "uint256",
          "name": "tokenId",
          "type": "uint256"
        }
      ],
      "name": "approve",
      "outputs": [],
      "stateMutability": "nonpayable",
      "type": "function"
    },
    {
      "inputs": [
        {
          "internalType": "address",
          "name": "to",
          "type": "address"
        }
      ],
      "name": "awardReputation",
      "outputs": [],
      "stateMutability": "nonpayable",
      "type": "function"
    },
    {
      "inputs": [
        {
          "internalType": "address",
          "name": "owner",
          "type": "address"
        }
      ],
      "name": "balanceOf",
      "outputs": [
        {
          "internalType": "uint256",
          "name": "",
          "type": "uint256"
        }
      ],
      "stateMutability": "view",
      "type": "function"
    },
    {
      "inputs": [
        {
          "internalType": "uint256",
          "name": "tokenId",
          "type": "uint256"
        }
      ],
      "name": "burn",
      "outputs": [],
      "stateMutability": "nonpayable",
      "type": "function"
    },
    {
      "inputs": [],
      "name": "expireTokens",
      "outputs": [],
      "stateMutability": "nonpayable",
      "type": "function"
    },
    {
      "inputs": [
        {
          "internalType": "uint256",
          "name": "tokenId",
          "type": "uint256"
        }
      ],
      "name": "getApproved",
      "outputs": [
        {
          "internalType": "address",
          "name": "",
          "type": "address"
        }
      ],
      "stateMutability": "view",
      "type": "function"
    },
    {
      "inputs": [
        {
          "internalType": "uint256",
          "name": "tokenId",
          "type": "uint256"
        }
      ],
      "name": "getTimestamp",
      "outputs": [
        {
          "internalType": "uint256",
          "name": "",
          "type": "uint256"
        }
      ],
      "stateMutability": "view",
      "type": "function"
    },
    {
      "inputs": [
        {
          "internalType": "address",
          "name": "owner",
          "type": "address"
        },
        {
          "internalType": "address",
          "name": "operator",
          "type": "address"
        }
      ],
      "name": "isApprovedForAll",
      "outputs": [
        {
          "internalType": "bool",
          "name": "",
          "type": "bool"
        }
      ],
      "stateMutability": "view",
      "type": "function"
    },
    {
      "inputs": [
        {
          "internalType": "address",
          "name": "owner",
          "type": "address"
        }
      ],
      "name": "isOwner",
      "outputs": [
        {
          "internalType": "bool",
          "name": "",
          "type": "bool"
        }
      ],
      "stateMutability": "view",
      "type": "function"
    },
    {
      "inputs": [],
      "name": "name",
      "outputs": [
        {
          "internalType": "string",
          "name": "",
          "type": "string"
        }
      ],
      "stateMutability": "view",
      "type": "function"
    },
    {
      "inputs": [],
      "name": "owner",
      "outputs": [
        {
          "internalType": "address",
          "name": "",
          "type": "address"
        }
      ],
      "stateMutability": "view",
      "type": "function"
    },
    {
      "inputs": [
        {
          "internalType": "uint256",
          "name": "tokenId",
          "type": "uint256"
        }
      ],
      "name": "ownerOf",
      "outputs": [
        {
          "internalType": "address",
          "name": "",
          "type": "address"
        }
      ],
      "stateMutability": "view",
      "type": "function"
    },
    {
      "inputs": [],
      "name": "pause",
      "outputs": [],
      "stateMutability": "nonpayable",
      "type": "function"
    },
    {
      "inputs": [],
      "name": "paused",
      "outputs": [
        {
          "internalType": "bool",
          "name": "",
          "type": "bool"
        }
      ],
      "stateMutability": "view",
      "type": "function"
    },
    {
      "inputs": [],
      "name": "renounceOwnership",
      "outputs": [],
      "stateMutability": "nonpayable",
      "type": "function"
    },
    {
      "inputs": [
        {
          "internalType": "address",
          "name": "to",
          "type": "address"
        }
      ],
      "name": "safeMint",
      "outputs": [],
      "stateMutability": "nonpayable",
      "type": "function"
    },
    {
      "inputs": [
        {
          "internalType": "address",
          "name": "from",
          "type": "address"
        },
        {
          "internalType": "address",
          "name": "to",
          "type": "address"
        },
        {
          "internalType": "uint256",
          "name": "tokenId",
          "type": "uint256"
        }
      ],
      "name": "safeTransferFrom",
      "outputs": [],
      "stateMutability": "nonpayable",
      "type": "function"
    },
    {
      "inputs": [
        {
          "internalType": "address",
          "name": "from",
          "type": "address"
        },
        {
          "internalType": "address",
          "name": "to",
          "type": "address"
        },
        {
          "internalType": "uint256",
          "name": "tokenId",
          "type": "uint256"
        },
        {
          "internalType": "bytes",
          "name": "_data",
          "type": "bytes"
        }
      ],
      "name": "safeTransferFrom",
      "outputs": [],
      "stateMutability": "nonpayable",
      "type": "function"
    },
    {
      "inputs": [
        {
          "internalType": "address",
          "name": "operator",
          "type": "address"
        },
        {
          "internalType": "bool",
          "name": "approved",
          "type": "bool"
        }
      ],
      "name": "setApprovalForAll",
      "outputs": [],
      "stateMutability": "nonpayable",
      "type": "function"
    },
    {
      "inputs": [
        {
          "internalType": "bytes4",
          "name": "interfaceId",
          "type": "bytes4"
        }
      ],
      "name": "supportsInterface",
      "outputs": [
        {
          "internalType": "bool",
          "name": "",
          "type": "bool"
        }
      ],
      "stateMutability": "view",
      "type": "function"
    },
    {
      "inputs": [],
      "name": "symbol",
      "outputs": [
        {
          "internalType": "string",
          "name": "",
          "type": "string"
        }
      ],
      "stateMutability": "view",
      "type": "function"
    },
    {
      "inputs": [
        {
          "internalType": "uint256",
          "name": "index",
          "type": "uint256"
        }
      ],
      "name": "tokenByIndex",
      "outputs": [
        {
          "internalType": "uint256",
          "name": "",
          "type": "uint256"
        }
      ],
      "stateMutability": "view",
      "type": "function"
    },
    {
      "inputs": [
        {
          "internalType": "address",
          "name": "owner",
          "type": "address"
        },
        {
          "internalType": "uint256",
          "name": "index",
          "type": "uint256"
        }
      ],
      "name": "tokenOfOwnerByIndex",
      "outputs": [
        {
          "internalType": "uint256",
          "name": "",
          "type": "uint256"
        }
      ],
      "stateMutability": "view",
      "type": "function"
    },
    {
      "inputs": [
        {
          "internalType": "uint256",
          "name": "tokenId",
          "type": "uint256"
        }
      ],
      "name": "tokenURI",
      "outputs": [
        {
          "internalType": "string",
          "name": "",
          "type": "string"
        }
      ],
      "stateMutability": "view",
      "type": "function"
    },
    {
      "inputs": [],
      "name": "totalSupply",
      "outputs": [
        {
          "internalType": "uint256",
          "name": "",
          "type": "uint256"
        }
      ],
      "stateMutability": "view",
      "type": "function"
    },
    {
      "inputs": [
        {
          "internalType": "address",
          "name": "from",
          "type": "address"
        },
        {
          "internalType": "address",
          "name": "to",
          "type": "address"
        },
        {
          "internalType": "uint256",
          "name": "tokenId",
          "type": "uint256"
        }
      ],
      "name": "transferFrom",
      "outputs": [],
      "stateMutability": "nonpayable",
      "type": "function"
    },
    {
      "inputs": [
        {
          "internalType": "address",
          "name": "newOwner",
          "type": "address"
        }
      ],
      "name": "transferOwnership",
      "outputs": [],
      "stateMutability": "nonpayable",
      "type": "function"
    },
    {
      "inputs": [],
      "name": "unpause",
      "outputs": [],
      "stateMutability": "nonpayable",
      "type": "function"
    }
  ],
  "bytecode": "0x60806040526000600d556000600e553480156200001b57600080fd5b506040518060400160405280600681526020017f52566f74657300000000000000000000000000000000000000000000000000008152506040518060400160405280600281526020017f52560000000000000000000000000000000000000000000000000000000000008152508160009080519060200190620000a0929190620001cb565b508060019080519060200190620000b9929190620001cb565b5050506000600a60006101000a81548160ff021916908315150217905550620000f7620000eb620000fd60201b60201c565b6200010560201b60201c565b620002e0565b600033905090565b6000600a60019054906101000a900473ffffffffffffffffffffffffffffffffffffffff16905081600a60016101000a81548173ffffffffffffffffffffffffffffffffffffffff021916908373ffffffffffffffffffffffffffffffffffffffff1602179055508173ffffffffffffffffffffffffffffffffffffffff168173ffffffffffffffffffffffffffffffffffffffff167f8be0079c531659141344cd1fd0a4f28419497f9722a3daafe3b4186f6b6457e060405160405180910390a35050565b828054620001d9906200027b565b90600052602060002090601f016020900481019282620001fd576000855562000249565b82601f106200021857805160ff191683800117855562000249565b8280016001018555821562000249579182015b82811115620002485782518255916020019190600101906200022b565b5b5090506200025891906200025c565b5090565b5b80821115620002775760008160009055506001016200025d565b5090565b600060028204905060018216806200029457607f821691505b60208210811415620002ab57620002aa620002b1565b5b50919050565b7f4e487b7100000000000000000000000000000000000000000000000000000000600052602260045260246000fd5b61403a80620002f06000396000f3fe608060405234801561001057600080fd5b50600436106101da5760003560e01c80636352211e1161010457806395d89b41116100a2578063b88d4fde11610071578063b88d4fde14610519578063c87b56dd14610535578063e985e9c514610565578063f2fde38b14610595576101da565b806395d89b4114610493578063a22cb465146104b1578063ac294b59146104cd578063b633620c146104e9576101da565b8063715018a6116100de578063715018a6146104455780637a5035cd1461044f5780638456cb591461046b5780638da5cb5b14610475576101da565b80636352211e146103db5780636c323d261461040b57806370a0823114610415576101da565b80632f54bf6e1161017c57806342842e0e1161014b57806342842e0e1461035557806342966c68146103715780634f6ccce71461038d5780635c975abb146103bd576101da565b80632f54bf6e146102cf5780632f745c59146102ff5780633f4ba83a1461032f57806340d097c314610339576101da565b8063095ea7b3116101b8578063095ea7b31461025d5780630a430f671461027957806318160ddd1461029557806323b872dd146102b3576101da565b806301ffc9a7146101df57806306fdde031461020f578063081812fc1461022d575b600080fd5b6101f960048036038101906101f49190612e44565b6105b1565b604051610206919061331c565b60405180910390f35b6102176105c3565b6040516102249190613337565b60405180910390f35b61024760048036038101906102429190612e96565b610655565b60405161025491906132b5565b60405180910390f35b61027760048036038101906102729190612e08565b6106da565b005b610293600480360381019061028e9190612c9d565b6107f2565b005b61029d61087c565b6040516102aa9190613619565b60405180910390f35b6102cd60048036038101906102c89190612d02565b610889565b005b6102e960048036038101906102e49190612c9d565b6108e9565b6040516102f6919061331c565b60405180910390f35b61031960048036038101906103149190612e08565b61090e565b6040516103269190613619565b60405180910390f35b6103376109b3565b005b610353600480360381019061034e9190612c9d565b610a39565b005b61036f600480360381019061036a9190612d02565b610b0b565b005b61038b60048036038101906103869190612e96565b610b2b565b005b6103a760048036038101906103a29190612e96565b610b87565b6040516103b49190613619565b60405180910390f35b6103c5610c1e565b6040516103d2919061331c565b60405180910390f35b6103f560048036038101906103f09190612e96565b610c35565b60405161040291906132b5565b60405180910390f35b610413610ce7565b005b61042f600480360381019061042a9190612c9d565b610d77565b60405161043c9190613619565b60405180910390f35b61044d610e2f565b005b61046960048036038101906104649190612e08565b610eb7565b005b610473610fa3565b005b61047d611029565b60405161048a91906132b5565b60405180910390f35b61049b611053565b6040516104a89190613337565b60405180910390f35b6104cb60048036038101906104c69190612dcc565b6110e5565b005b6104e760048036038101906104e29190612e96565b6110fb565b005b61050360048036038101906104fe9190612e96565b611284565b6040516105109190613619565b60405180910390f35b610533600480360381019061052e9190612d51565b6112a1565b005b61054f600480360381019061054a9190612e96565b611303565b60405161055c9190613337565b60405180910390f35b61057f600480360381019061057a9190612cc6565b6113aa565b60405161058c919061331c565b60405180910390f35b6105af60048036038101906105aa9190612c9d565b61143e565b005b60006105bc82611536565b9050919050565b6060600080546105d29061383e565b80601f01602080910402602001604051908101604052809291908181526020018280546105fe9061383e565b801561064b5780601f106106205761010080835404028352916020019161064b565b820191906000526020600020905b81548152906001019060200180831161062e57829003601f168201915b5050505050905090565b6000610660826115b0565b61069f576040517f08c379a000000000000000000000000000000000000000000000000000000000815260040161069690613519565b60405180910390fd5b6004600083815260200190815260200160002060009054906101000a900473ffffffffffffffffffffffffffffffffffffffff169050919050565b60006106e582610c35565b90508073ffffffffffffffffffffffffffffffffffffffff168373ffffffffffffffffffffffffffffffffffffffff161415610756576040517f08c379a000000000000000000000000000000000000000000000000000000000815260040161074d90613599565b60405180910390fd5b8073ffffffffffffffffffffffffffffffffffffffff1661077561161c565b73ffffffffffffffffffffffffffffffffffffffff1614806107a457506107a38161079e61161c565b6113aa565b5b6107e3576040517f08c379a00000000000000000000000000000000000000000000000000000000081526004016107da90613499565b60405180910390fd5b6107ed8383611624565b505050565b6107fa61161c565b73ffffffffffffffffffffffffffffffffffffffff16610818611029565b73ffffffffffffffffffffffffffffffffffffffff161461086e576040517f08c379a000000000000000000000000000000000000000000000000000000000815260040161086590613539565b60405180910390fd5b61087981600a610eb7565b50565b6000600880549050905090565b61089a61089461161c565b826116dd565b6108d9576040517f08c379a00000000000000000000000000000000000000000000000000000000081526004016108d0906135b9565b60405180910390fd5b6108e48383836117bb565b505050565b6000806108f583610d77565b11156109045760019050610909565b600090505b919050565b600061091983610d77565b821061095a576040517f08c379a000000000000000000000000000000000000000000000000000000000815260040161095190613399565b60405180910390fd5b600660008473ffffffffffffffffffffffffffffffffffffffff1673ffffffffffffffffffffffffffffffffffffffff168152602001908152602001600020600083815260200190815260200160002054905092915050565b6109bb61161c565b73ffffffffffffffffffffffffffffffffffffffff166109d9611029565b73ffffffffffffffffffffffffffffffffffffffff1614610a2f576040517f08c379a0000000000000000000000000000000000000000000000000000000008152600401610a2690613539565b60405180910390fd5b610a37611a17565b565b610a4161161c565b73ffffffffffffffffffffffffffffffffffffffff16610a5f611029565b73ffffffffffffffffffffffffffffffffffffffff1614610ab5576040517f08c379a0000000000000000000000000000000000000000000000000000000008152600401610aac90613539565b60405180910390fd5b6000610ac1600f611ab9565b9050610acd600f611ac7565b610ad78282611add565b42600c600083815260200190815260200160002081905550600e6000815480929190610b02906138a1565b91905055505050565b610b26838383604051806020016040528060008152506112a1565b505050565b610b3c610b3661161c565b826116dd565b610b7b576040517f08c379a0000000000000000000000000000000000000000000000000000000008152600401610b72906135f9565b60405180910390fd5b610b8481611afb565b50565b6000610b9161087c565b8210610bd2576040517f08c379a0000000000000000000000000000000000000000000000000000000008152600401610bc9906135d9565b60405180910390fd5b60088281548110610c0c577f4e487b7100000000000000000000000000000000000000000000000000000000600052603260045260246000fd5b90600052602060002001549050919050565b6000600a60009054906101000a900460ff16905090565b6000806002600084815260200190815260200160002060009054906101000a900473ffffffffffffffffffffffffffffffffffffffff169050600073ffffffffffffffffffffffffffffffffffffffff168173ffffffffffffffffffffffffffffffffffffffff161415610cde576040517f08c379a0000000000000000000000000000000000000000000000000000000008152600401610cd5906134d9565b60405180910390fd5b80915050919050565b610cef61161c565b73ffffffffffffffffffffffffffffffffffffffff16610d0d611029565b73ffffffffffffffffffffffffffffffffffffffff1614610d63576040517f08c379a0000000000000000000000000000000000000000000000000000000008152600401610d5a90613539565b60405180910390fd5b6000620d2f009050610d74816110fb565b50565b60008073ffffffffffffffffffffffffffffffffffffffff168273ffffffffffffffffffffffffffffffffffffffff161415610de8576040517f08c379a0000000000000000000000000000000000000000000000000000000008152600401610ddf906134b9565b60405180910390fd5b600360008373ffffffffffffffffffffffffffffffffffffffff1673ffffffffffffffffffffffffffffffffffffffff168152602001908152602001600020549050919050565b610e3761161c565b73ffffffffffffffffffffffffffffffffffffffff16610e55611029565b73ffffffffffffffffffffffffffffffffffffffff1614610eab576040517f08c379a0000000000000000000000000000000000000000000000000000000008152600401610ea290613539565b60405180910390fd5b610eb56000611c0c565b565b610ebf61161c565b73ffffffffffffffffffffffffffffffffffffffff16610edd611029565b73ffffffffffffffffffffffffffffffffffffffff1614610f33576040517f08c379a0000000000000000000000000000000000000000000000000000000008152600401610f2a90613539565b60405180910390fd5b601e811115610f77576040517f08c379a0000000000000000000000000000000000000000000000000000000008152600401610f6e90613379565b60405180910390fd5b60005b81811015610f9e57610f8b83610a39565b8080610f96906138a1565b915050610f7a565b505050565b610fab61161c565b73ffffffffffffffffffffffffffffffffffffffff16610fc9611029565b73ffffffffffffffffffffffffffffffffffffffff161461101f576040517f08c379a000000000000000000000000000000000000000000000000000000000815260040161101690613539565b60405180910390fd5b611027611cd2565b565b6000600a60019054906101000a900473ffffffffffffffffffffffffffffffffffffffff16905090565b6060600180546110629061383e565b80601f016020809104026020016040519081016040528092919081815260200182805461108e9061383e565b80156110db5780601f106110b0576101008083540402835291602001916110db565b820191906000526020600020905b8154815290600101906020018083116110be57829003601f168201915b5050505050905090565b6110f76110f061161c565b8383611d75565b5050565b61110361161c565b73ffffffffffffffffffffffffffffffffffffffff16611121611029565b73ffffffffffffffffffffffffffffffffffffffff1614611177576040517f08c379a000000000000000000000000000000000000000000000000000000000815260040161116e90613539565b60405180910390fd5b6000600d5490506000824261118c9190613754565b90506000600c60008481526020019081526020016000205490505b81811080156111c457506001600e546111c09190613754565b8311155b15611277576111d283611afb565b82806111dd906138a1565b935050600c60008481526020019081526020016000205490506112346040518060400160405280601481526020017f6275726e656420746f6b656e2061742069643a20000000000000000000000000815250611ee2565b6112726040518060400160405280600681526020017f6375727249640000000000000000000000000000000000000000000000000000815250611ee2565b6111a7565b82600d8190555050505050565b6000600c6000838152602001908152602001600020549050919050565b6112b26112ac61161c565b836116dd565b6112f1576040517f08c379a00000000000000000000000000000000000000000000000000000000081526004016112e8906135b9565b60405180910390fd5b6112fd84848484611f7b565b50505050565b606061130e826115b0565b61134d576040517f08c379a000000000000000000000000000000000000000000000000000000000815260040161134490613579565b60405180910390fd5b6000611357611fd7565b9050600081511161137757604051806020016040528060008152506113a2565b8061138184611fee565b604051602001611392929190613291565b6040516020818303038152906040525b915050919050565b6000600560008473ffffffffffffffffffffffffffffffffffffffff1673ffffffffffffffffffffffffffffffffffffffff16815260200190815260200160002060008373ffffffffffffffffffffffffffffffffffffffff1673ffffffffffffffffffffffffffffffffffffffff16815260200190815260200160002060009054906101000a900460ff16905092915050565b61144661161c565b73ffffffffffffffffffffffffffffffffffffffff16611464611029565b73ffffffffffffffffffffffffffffffffffffffff16146114ba576040517f08c379a00000000000000000000000000000000000000000000000000000000081526004016114b190613539565b60405180910390fd5b600073ffffffffffffffffffffffffffffffffffffffff168173ffffffffffffffffffffffffffffffffffffffff16141561152a576040517f08c379a0000000000000000000000000000000000000000000000000000000008152600401611521906133d9565b60405180910390fd5b61153381611c0c565b50565b60007f780e9d63000000000000000000000000000000000000000000000000000000007bffffffffffffffffffffffffffffffffffffffffffffffffffffffff1916827bffffffffffffffffffffffffffffffffffffffffffffffffffffffff191614806115a957506115a88261219b565b5b9050919050565b60008073ffffffffffffffffffffffffffffffffffffffff166002600084815260200190815260200160002060009054906101000a900473ffffffffffffffffffffffffffffffffffffffff1673ffffffffffffffffffffffffffffffffffffffff1614159050919050565b600033905090565b816004600083815260200190815260200160002060006101000a81548173ffffffffffffffffffffffffffffffffffffffff021916908373ffffffffffffffffffffffffffffffffffffffff160217905550808273ffffffffffffffffffffffffffffffffffffffff1661169783610c35565b73ffffffffffffffffffffffffffffffffffffffff167f8c5be1e5ebec7d5bd14f71427d1e84f3dd0314c0f7b2291e5b200ac8c7c3b92560405160405180910390a45050565b60006116e8826115b0565b611727576040517f08c379a000000000000000000000000000000000000000000000000000000000815260040161171e90613459565b60405180910390fd5b600061173283610c35565b90508073ffffffffffffffffffffffffffffffffffffffff168473ffffffffffffffffffffffffffffffffffffffff1614806117a157508373ffffffffffffffffffffffffffffffffffffffff1661178984610655565b73ffffffffffffffffffffffffffffffffffffffff16145b806117b257506117b181856113aa565b5b91505092915050565b8273ffffffffffffffffffffffffffffffffffffffff166117db82610c35565b73ffffffffffffffffffffffffffffffffffffffff1614611831576040517f08c379a000000000000000000000000000000000000000000000000000000000815260040161182890613559565b60405180910390fd5b600073ffffffffffffffffffffffffffffffffffffffff168273ffffffffffffffffffffffffffffffffffffffff1614156118a1576040517f08c379a000000000000000000000000000000000000000000000000000000000815260040161189890613419565b60405180910390fd5b6118ac83838361227d565b6118b7600082611624565b6001600360008573ffffffffffffffffffffffffffffffffffffffff1673ffffffffffffffffffffffffffffffffffffffff16815260200190815260200160002060008282546119079190613754565b925050819055506001600360008473ffffffffffffffffffffffffffffffffffffffff1673ffffffffffffffffffffffffffffffffffffffff168152602001908152602001600020600082825461195e91906136cd565b92505081905550816002600083815260200190815260200160002060006101000a81548173ffffffffffffffffffffffffffffffffffffffff021916908373ffffffffffffffffffffffffffffffffffffffff160217905550808273ffffffffffffffffffffffffffffffffffffffff168473ffffffffffffffffffffffffffffffffffffffff167fddf252ad1be2c89b69c2b068fc378daa952ba7f163c4a11628f55a4df523b3ef60405160405180910390a4505050565b611a1f610c1e565b611a5e576040517f08c379a0000000000000000000000000000000000000000000000000000000008152600401611a5590613359565b60405180910390fd5b6000600a60006101000a81548160ff0219169083151502179055507f5db9ee0a495bf2e6ff9c91a7834c1ba4fdd244a5e8aa4e537bd38aeae4b073aa611aa261161c565b604051611aaf91906132b5565b60405180910390a1565b600081600001549050919050565b6001816000016000828254019250508190555050565b611af78282604051806020016040528060008152506122d5565b5050565b6000611b0682610c35565b9050611b148160008461227d565b611b1f600083611624565b6001600360008373ffffffffffffffffffffffffffffffffffffffff1673ffffffffffffffffffffffffffffffffffffffff1681526020019081526020016000206000828254611b6f9190613754565b925050819055506002600083815260200190815260200160002060006101000a81549073ffffffffffffffffffffffffffffffffffffffff021916905581600073ffffffffffffffffffffffffffffffffffffffff168273ffffffffffffffffffffffffffffffffffffffff167fddf252ad1be2c89b69c2b068fc378daa952ba7f163c4a11628f55a4df523b3ef60405160405180910390a45050565b6000600a60019054906101000a900473ffffffffffffffffffffffffffffffffffffffff16905081600a60016101000a81548173ffffffffffffffffffffffffffffffffffffffff021916908373ffffffffffffffffffffffffffffffffffffffff1602179055508173ffffffffffffffffffffffffffffffffffffffff168173ffffffffffffffffffffffffffffffffffffffff167f8be0079c531659141344cd1fd0a4f28419497f9722a3daafe3b4186f6b6457e060405160405180910390a35050565b611cda610c1e565b15611d1a576040517f08c379a0000000000000000000000000000000000000000000000000000000008152600401611d1190613479565b60405180910390fd5b6001600a60006101000a81548160ff0219169083151502179055507f62e78cea01bee320cd4e420270b5ea74000d11b0c9f74754ebdbfc544b05a258611d5e61161c565b604051611d6b91906132b5565b60405180910390a1565b8173ffffffffffffffffffffffffffffffffffffffff168373ffffffffffffffffffffffffffffffffffffffff161415611de4576040517f08c379a0000000000000000000000000000000000000000000000000000000008152600401611ddb90613439565b60405180910390fd5b80600560008573ffffffffffffffffffffffffffffffffffffffff1673ffffffffffffffffffffffffffffffffffffffff16815260200190815260200160002060008473ffffffffffffffffffffffffffffffffffffffff1673ffffffffffffffffffffffffffffffffffffffff16815260200190815260200160002060006101000a81548160ff0219169083151502179055508173ffffffffffffffffffffffffffffffffffffffff168373ffffffffffffffffffffffffffffffffffffffff167f17307eab39ab6107e8899845ad3d59bd9653f200f220920489ca2b5937696c3183604051611ed5919061331c565b60405180910390a3505050565b611f7881604051602401611ef69190613337565b6040516020818303038152906040527f41304fac000000000000000000000000000000000000000000000000000000007bffffffffffffffffffffffffffffffffffffffffffffffffffffffff19166020820180517bffffffffffffffffffffffffffffffffffffffffffffffffffffffff8381831617835250505050612330565b50565b611f868484846117bb565b611f9284848484612359565b611fd1576040517f08c379a0000000000000000000000000000000000000000000000000000000008152600401611fc8906133b9565b60405180910390fd5b50505050565b606060405180602001604052806000815250905090565b60606000821415612036576040518060400160405280600181526020017f30000000000000000000000000000000000000000000000000000000000000008152509050612196565b600082905060005b60008214612068578080612051906138a1565b915050600a826120619190613723565b915061203e565b60008167ffffffffffffffff8111156120aa577f4e487b7100000000000000000000000000000000000000000000000000000000600052604160045260246000fd5b6040519080825280601f01601f1916602001820160405280156120dc5781602001600182028036833780820191505090505b5090505b6000851461218f576001826120f59190613754565b9150600a8561210491906138ea565b603061211091906136cd565b60f81b81838151811061214c577f4e487b7100000000000000000000000000000000000000000000000000000000600052603260045260246000fd5b60200101907effffffffffffffffffffffffffffffffffffffffffffffffffffffffffffff1916908160001a905350600a856121889190613723565b94506120e0565b8093505050505b919050565b60007f80ac58cd000000000000000000000000000000000000000000000000000000007bffffffffffffffffffffffffffffffffffffffffffffffffffffffff1916827bffffffffffffffffffffffffffffffffffffffffffffffffffffffff1916148061226657507f5b5e139f000000000000000000000000000000000000000000000000000000007bffffffffffffffffffffffffffffffffffffffffffffffffffffffff1916827bffffffffffffffffffffffffffffffffffffffffffffffffffffffff1916145b806122765750612275826124f0565b5b9050919050565b612285610c1e565b156122c5576040517f08c379a00000000000000000000000000000000000000000000000000000000081526004016122bc90613479565b60405180910390fd5b6122d083838361255a565b505050565b6122df838361266e565b6122ec6000848484612359565b61232b576040517f08c379a0000000000000000000000000000000000000000000000000000000008152600401612322906133b9565b60405180910390fd5b505050565b60008151905060006a636f6e736f6c652e6c6f679050602083016000808483855afa5050505050565b600061237a8473ffffffffffffffffffffffffffffffffffffffff1661283c565b156124e3578373ffffffffffffffffffffffffffffffffffffffff1663150b7a026123a361161c565b8786866040518563ffffffff1660e01b81526004016123c594939291906132d0565b602060405180830381600087803b1580156123df57600080fd5b505af192505050801561241057506040513d601f19601f8201168201806040525081019061240d9190612e6d565b60015b612493573d8060008114612440576040519150601f19603f3d011682016040523d82523d6000602084013e612445565b606091505b5060008151141561248b576040517f08c379a0000000000000000000000000000000000000000000000000000000008152600401612482906133b9565b60405180910390fd5b805181602001fd5b63150b7a0260e01b7bffffffffffffffffffffffffffffffffffffffffffffffffffffffff1916817bffffffffffffffffffffffffffffffffffffffffffffffffffffffff1916149150506124e8565b600190505b949350505050565b60007f01ffc9a7000000000000000000000000000000000000000000000000000000007bffffffffffffffffffffffffffffffffffffffffffffffffffffffff1916827bffffffffffffffffffffffffffffffffffffffffffffffffffffffff1916149050919050565b61256583838361284f565b600073ffffffffffffffffffffffffffffffffffffffff168373ffffffffffffffffffffffffffffffffffffffff1614156125a8576125a381612854565b6125e7565b8173ffffffffffffffffffffffffffffffffffffffff168373ffffffffffffffffffffffffffffffffffffffff16146125e6576125e5838261289d565b5b5b600073ffffffffffffffffffffffffffffffffffffffff168273ffffffffffffffffffffffffffffffffffffffff16141561262a5761262581612a0a565b612669565b8273ffffffffffffffffffffffffffffffffffffffff168273ffffffffffffffffffffffffffffffffffffffff1614612668576126678282612b4d565b5b5b505050565b600073ffffffffffffffffffffffffffffffffffffffff168273ffffffffffffffffffffffffffffffffffffffff1614156126de576040517f08c379a00000000000000000000000000000000000000000000000000000000081526004016126d5906134f9565b60405180910390fd5b6126e7816115b0565b15612727576040517f08c379a000000000000000000000000000000000000000000000000000000000815260040161271e906133f9565b60405180910390fd5b6127336000838361227d565b6001600360008473ffffffffffffffffffffffffffffffffffffffff1673ffffffffffffffffffffffffffffffffffffffff168152602001908152602001600020600082825461278391906136cd565b92505081905550816002600083815260200190815260200160002060006101000a81548173ffffffffffffffffffffffffffffffffffffffff021916908373ffffffffffffffffffffffffffffffffffffffff160217905550808273ffffffffffffffffffffffffffffffffffffffff16600073ffffffffffffffffffffffffffffffffffffffff167fddf252ad1be2c89b69c2b068fc378daa952ba7f163c4a11628f55a4df523b3ef60405160405180910390a45050565b600080823b905060008111915050919050565b505050565b6008805490506009600083815260200190815260200160002081905550600881908060018154018082558091505060019003906000526020600020016000909190919091505550565b600060016128aa84610d77565b6128b49190613754565b9050600060076000848152602001908152602001600020549050818114612999576000600660008673ffffffffffffffffffffffffffffffffffffffff1673ffffffffffffffffffffffffffffffffffffffff168152602001908152602001600020600084815260200190815260200160002054905080600660008773ffffffffffffffffffffffffffffffffffffffff1673ffffffffffffffffffffffffffffffffffffffff168152602001908152602001600020600084815260200190815260200160002081905550816007600083815260200190815260200160002081905550505b6007600084815260200190815260200160002060009055600660008573ffffffffffffffffffffffffffffffffffffffff1673ffffffffffffffffffffffffffffffffffffffff16815260200190815260200160002060008381526020019081526020016000206000905550505050565b60006001600880549050612a1e9190613754565b9050600060096000848152602001908152602001600020549050600060088381548110612a74577f4e487b7100000000000000000000000000000000000000000000000000000000600052603260045260246000fd5b906000526020600020015490508060088381548110612abc577f4e487b7100000000000000000000000000000000000000000000000000000000600052603260045260246000fd5b906000526020600020018190555081600960008381526020019081526020016000208190555060096000858152602001908152602001600020600090556008805480612b31577f4e487b7100000000000000000000000000000000000000000000000000000000600052603160045260246000fd5b6001900381819060005260206000200160009055905550505050565b6000612b5883610d77565b905081600660008573ffffffffffffffffffffffffffffffffffffffff1673ffffffffffffffffffffffffffffffffffffffff168152602001908152602001600020600083815260200190815260200160002081905550806007600084815260200190815260200160002081905550505050565b6000612bdf612bda84613659565b613634565b905082815260208101848484011115612bf757600080fd5b612c028482856137fc565b509392505050565b600081359050612c1981613fa8565b92915050565b600081359050612c2e81613fbf565b92915050565b600081359050612c4381613fd6565b92915050565b600081519050612c5881613fd6565b92915050565b600082601f830112612c6f57600080fd5b8135612c7f848260208601612bcc565b91505092915050565b600081359050612c9781613fed565b92915050565b600060208284031215612caf57600080fd5b6000612cbd84828501612c0a565b91505092915050565b60008060408385031215612cd957600080fd5b6000612ce785828601612c0a565b9250506020612cf885828601612c0a565b9150509250929050565b600080600060608486031215612d1757600080fd5b6000612d2586828701612c0a565b9350506020612d3686828701612c0a565b9250506040612d4786828701612c88565b9150509250925092565b60008060008060808587031215612d6757600080fd5b6000612d7587828801612c0a565b9450506020612d8687828801612c0a565b9350506040612d9787828801612c88565b925050606085013567ffffffffffffffff811115612db457600080fd5b612dc087828801612c5e565b91505092959194509250565b60008060408385031215612ddf57600080fd5b6000612ded85828601612c0a565b9250506020612dfe85828601612c1f565b9150509250929050565b60008060408385031215612e1b57600080fd5b6000612e2985828601612c0a565b9250506020612e3a85828601612c88565b9150509250929050565b600060208284031215612e5657600080fd5b6000612e6484828501612c34565b91505092915050565b600060208284031215612e7f57600080fd5b6000612e8d84828501612c49565b91505092915050565b600060208284031215612ea857600080fd5b6000612eb684828501612c88565b91505092915050565b612ec881613788565b82525050565b612ed78161379a565b82525050565b6000612ee88261368a565b612ef281856136a0565b9350612f0281856020860161380b565b612f0b816139d7565b840191505092915050565b6000612f2182613695565b612f2b81856136b1565b9350612f3b81856020860161380b565b612f44816139d7565b840191505092915050565b6000612f5a82613695565b612f6481856136c2565b9350612f7481856020860161380b565b80840191505092915050565b6000612f8d6014836136b1565b9150612f98826139e8565b602082019050919050565b6000612fb06020836136b1565b9150612fbb82613a11565b602082019050919050565b6000612fd3602b836136b1565b9150612fde82613a3a565b604082019050919050565b6000612ff66032836136b1565b915061300182613a89565b604082019050919050565b60006130196026836136b1565b915061302482613ad8565b604082019050919050565b600061303c601c836136b1565b915061304782613b27565b602082019050919050565b600061305f6024836136b1565b915061306a82613b50565b604082019050919050565b60006130826019836136b1565b915061308d82613b9f565b602082019050919050565b60006130a5602c836136b1565b91506130b082613bc8565b604082019050919050565b60006130c86010836136b1565b91506130d382613c17565b602082019050919050565b60006130eb6038836136b1565b91506130f682613c40565b604082019050919050565b600061310e602a836136b1565b915061311982613c8f565b604082019050919050565b60006131316029836136b1565b915061313c82613cde565b604082019050919050565b60006131546020836136b1565b915061315f82613d2d565b602082019050919050565b6000613177602c836136b1565b915061318282613d56565b604082019050919050565b600061319a6020836136b1565b91506131a582613da5565b602082019050919050565b60006131bd6029836136b1565b91506131c882613dce565b604082019050919050565b60006131e0602f836136b1565b91506131eb82613e1d565b604082019050919050565b60006132036021836136b1565b915061320e82613e6c565b604082019050919050565b60006132266031836136b1565b915061323182613ebb565b604082019050919050565b6000613249602c836136b1565b915061325482613f0a565b604082019050919050565b600061326c6030836136b1565b915061327782613f59565b604082019050919050565b61328b816137f2565b82525050565b600061329d8285612f4f565b91506132a98284612f4f565b91508190509392505050565b60006020820190506132ca6000830184612ebf565b92915050565b60006080820190506132e56000830187612ebf565b6132f26020830186612ebf565b6132ff6040830185613282565b81810360608301526133118184612edd565b905095945050505050565b60006020820190506133316000830184612ece565b92915050565b600060208201905081810360008301526133518184612f16565b905092915050565b6000602082019050818103600083015261337281612f80565b9050919050565b6000602082019050818103600083015261339281612fa3565b9050919050565b600060208201905081810360008301526133b281612fc6565b9050919050565b600060208201905081810360008301526133d281612fe9565b9050919050565b600060208201905081810360008301526133f28161300c565b9050919050565b600060208201905081810360008301526134128161302f565b9050919050565b6000602082019050818103600083015261343281613052565b9050919050565b6000602082019050818103600083015261345281613075565b9050919050565b6000602082019050818103600083015261347281613098565b9050919050565b60006020820190508181036000830152613492816130bb565b9050919050565b600060208201905081810360008301526134b2816130de565b9050919050565b600060208201905081810360008301526134d281613101565b9050919050565b600060208201905081810360008301526134f281613124565b9050919050565b6000602082019050818103600083015261351281613147565b9050919050565b600060208201905081810360008301526135328161316a565b9050919050565b600060208201905081810360008301526135528161318d565b9050919050565b60006020820190508181036000830152613572816131b0565b9050919050565b60006020820190508181036000830152613592816131d3565b9050919050565b600060208201905081810360008301526135b2816131f6565b9050919050565b600060208201905081810360008301526135d281613219565b9050919050565b600060208201905081810360008301526135f28161323c565b9050919050565b600060208201905081810360008301526136128161325f565b9050919050565b600060208201905061362e6000830184613282565b92915050565b600061363e61364f565b905061364a8282613870565b919050565b6000604051905090565b600067ffffffffffffffff821115613674576136736139a8565b5b61367d826139d7565b9050602081019050919050565b600081519050919050565b600081519050919050565b600082825260208201905092915050565b600082825260208201905092915050565b600081905092915050565b60006136d8826137f2565b91506136e3836137f2565b9250827fffffffffffffffffffffffffffffffffffffffffffffffffffffffffffffffff038211156137185761371761391b565b5b828201905092915050565b600061372e826137f2565b9150613739836137f2565b9250826137495761374861394a565b5b828204905092915050565b600061375f826137f2565b915061376a836137f2565b92508282101561377d5761377c61391b565b5b828203905092915050565b6000613793826137d2565b9050919050565b60008115159050919050565b60007fffffffff0000000000000000000000000000000000000000000000000000000082169050919050565b600073ffffffffffffffffffffffffffffffffffffffff82169050919050565b6000819050919050565b82818337600083830152505050565b60005b8381101561382957808201518184015260208101905061380e565b83811115613838576000848401525b50505050565b6000600282049050600182168061385657607f821691505b6020821081141561386a57613869613979565b5b50919050565b613879826139d7565b810181811067ffffffffffffffff82111715613898576138976139a8565b5b80604052505050565b60006138ac826137f2565b91507fffffffffffffffffffffffffffffffffffffffffffffffffffffffffffffffff8214156138df576138de61391b565b5b600182019050919050565b60006138f5826137f2565b9150613900836137f2565b9250826139105761390f61394a565b5b828206905092915050565b7f4e487b7100000000000000000000000000000000000000000000000000000000600052601160045260246000fd5b7f4e487b7100000000000000000000000000000000000000000000000000000000600052601260045260246000fd5b7f4e487b7100000000000000000000000000000000000000000000000000000000600052602260045260246000fd5b7f4e487b7100000000000000000000000000000000000000000000000000000000600052604160045260246000fd5b6000601f19601f8301169050919050565b7f5061757361626c653a206e6f7420706175736564000000000000000000000000600082015250565b7f52657075746174696f6e20616d6f756e7420697320746f6f2068696768207864600082015250565b7f455243373231456e756d657261626c653a206f776e657220696e646578206f7560008201527f74206f6620626f756e6473000000000000000000000000000000000000000000602082015250565b7f4552433732313a207472616e7366657220746f206e6f6e20455243373231526560008201527f63656976657220696d706c656d656e7465720000000000000000000000000000602082015250565b7f4f776e61626c653a206e6577206f776e657220697320746865207a65726f206160008201527f6464726573730000000000000000000000000000000000000000000000000000602082015250565b7f4552433732313a20746f6b656e20616c7265616479206d696e74656400000000600082015250565b7f4552433732313a207472616e7366657220746f20746865207a65726f2061646460008201527f7265737300000000000000000000000000000000000000000000000000000000602082015250565b7f4552433732313a20617070726f766520746f2063616c6c657200000000000000600082015250565b7f4552433732313a206f70657261746f7220717565727920666f72206e6f6e657860008201527f697374656e7420746f6b656e0000000000000000000000000000000000000000602082015250565b7f5061757361626c653a2070617573656400000000000000000000000000000000600082015250565b7f4552433732313a20617070726f76652063616c6c6572206973206e6f74206f7760008201527f6e6572206e6f7220617070726f76656420666f7220616c6c0000000000000000602082015250565b7f4552433732313a2062616c616e636520717565727920666f7220746865207a6560008201527f726f206164647265737300000000000000000000000000000000000000000000602082015250565b7f4552433732313a206f776e657220717565727920666f72206e6f6e657869737460008201527f656e7420746f6b656e0000000000000000000000000000000000000000000000602082015250565b7f4552433732313a206d696e7420746f20746865207a65726f2061646472657373600082015250565b7f4552433732313a20617070726f76656420717565727920666f72206e6f6e657860008201527f697374656e7420746f6b656e0000000000000000000000000000000000000000602082015250565b7f4f776e61626c653a2063616c6c6572206973206e6f7420746865206f776e6572600082015250565b7f4552433732313a207472616e73666572206f6620746f6b656e2074686174206960008201527f73206e6f74206f776e0000000000000000000000000000000000000000000000602082015250565b7f4552433732314d657461646174613a2055524920717565727920666f72206e6f60008201527f6e6578697374656e7420746f6b656e0000000000000000000000000000000000602082015250565b7f4552433732313a20617070726f76616c20746f2063757272656e74206f776e6560008201527f7200000000000000000000000000000000000000000000000000000000000000602082015250565b7f4552433732313a207472616e736665722063616c6c6572206973206e6f74206f60008201527f776e6572206e6f7220617070726f766564000000000000000000000000000000602082015250565b7f455243373231456e756d657261626c653a20676c6f62616c20696e646578206f60008201527f7574206f6620626f756e64730000000000000000000000000000000000000000602082015250565b7f4552433732314275726e61626c653a2063616c6c6572206973206e6f74206f7760008201527f6e6572206e6f7220617070726f76656400000000000000000000000000000000602082015250565b613fb181613788565b8114613fbc57600080fd5b50565b613fc88161379a565b8114613fd357600080fd5b50565b613fdf816137a6565b8114613fea57600080fd5b50565b613ff6816137f2565b811461400157600080fd5b5056fea2646970667358221220c970b2c84bb8f6f882c2659e573a7e0d23a32b19062fb4dbf6963cc25bf82b1764736f6c63430008040033",
  "linkReferences": {},
  "deployedLinkReferences": {}
}