{
  "_format": "hh-sol-artifact-1",
  "contractName": "RVotes",
  "sourceName": "contracts/RVotes.sol",
  "abi": [
    {
      "inputs": [],
      "stateMutability": "nonpayable",
      "type": "constructor"
    },
    {
      "anonymous": false,
      "inputs": [
        {
          "indexed": true,
          "internalType": "address",
          "name": "owner",
          "type": "address"
        },
        {
          "indexed": true,
          "internalType": "address",
          "name": "approved",
          "type": "address"
        },
        {
          "indexed": true,
          "internalType": "uint256",
          "name": "tokenId",
          "type": "uint256"
        }
      ],
      "name": "Approval",
      "type": "event"
    },
    {
      "anonymous": false,
      "inputs": [
        {
          "indexed": true,
          "internalType": "address",
          "name": "owner",
          "type": "address"
        },
        {
          "indexed": true,
          "internalType": "address",
          "name": "operator",
          "type": "address"
        },
        {
          "indexed": false,
          "internalType": "bool",
          "name": "approved",
          "type": "bool"
        }
      ],
      "name": "ApprovalForAll",
      "type": "event"
    },
    {
      "anonymous": false,
      "inputs": [
        {
          "indexed": true,
          "internalType": "address",
          "name": "previousOwner",
          "type": "address"
        },
        {
          "indexed": true,
          "internalType": "address",
          "name": "newOwner",
          "type": "address"
        }
      ],
      "name": "OwnershipTransferred",
      "type": "event"
    },
    {
      "anonymous": false,
      "inputs": [
        {
          "indexed": false,
          "internalType": "address",
          "name": "account",
          "type": "address"
        }
      ],
      "name": "Paused",
      "type": "event"
    },
    {
      "anonymous": false,
      "inputs": [
        {
          "indexed": true,
          "internalType": "address",
          "name": "from",
          "type": "address"
        },
        {
          "indexed": true,
          "internalType": "address",
          "name": "to",
          "type": "address"
        },
        {
          "indexed": true,
          "internalType": "uint256",
          "name": "tokenId",
          "type": "uint256"
        }
      ],
      "name": "Transfer",
      "type": "event"
    },
    {
      "anonymous": false,
      "inputs": [
        {
          "indexed": false,
          "internalType": "address",
          "name": "account",
          "type": "address"
        }
      ],
      "name": "Unpaused",
      "type": "event"
    },
    {
      "inputs": [
        {
          "internalType": "address",
          "name": "to",
          "type": "address"
        },
        {
          "internalType": "uint256",
          "name": "amount",
          "type": "uint256"
        }
      ],
      "name": "_awardReputation",
      "outputs": [],
      "stateMutability": "nonpayable",
      "type": "function"
    },
    {
      "inputs": [
        {
          "internalType": "uint256",
          "name": "timeElapsed",
          "type": "uint256"
        }
      ],
      "name": "_expireTokens",
      "outputs": [],
      "stateMutability": "nonpayable",
      "type": "function"
    },
    {
      "inputs": [
        {
          "internalType": "address",
          "name": "to",
          "type": "address"
        },
        {
          "internalType": "uint256",
          "name": "tokenId",
          "type": "uint256"
        }
      ],
      "name": "approve",
      "outputs": [],
      "stateMutability": "nonpayable",
      "type": "function"
    },
    {
      "inputs": [
        {
          "internalType": "address",
          "name": "to",
          "type": "address"
        }
      ],
      "name": "awardReputation",
      "outputs": [],
      "stateMutability": "nonpayable",
      "type": "function"
    },
    {
      "inputs": [
        {
          "internalType": "address",
          "name": "owner",
          "type": "address"
        }
      ],
      "name": "balanceOf",
      "outputs": [
        {
          "internalType": "uint256",
          "name": "",
          "type": "uint256"
        }
      ],
      "stateMutability": "view",
      "type": "function"
    },
    {
      "inputs": [
        {
          "internalType": "uint256",
          "name": "tokenId",
          "type": "uint256"
        }
      ],
      "name": "burn",
      "outputs": [],
      "stateMutability": "nonpayable",
      "type": "function"
    },
    {
      "inputs": [],
      "name": "expireTokens",
      "outputs": [],
      "stateMutability": "nonpayable",
      "type": "function"
    },
    {
      "inputs": [
        {
          "internalType": "uint256",
          "name": "tokenId",
          "type": "uint256"
        }
      ],
      "name": "getApproved",
      "outputs": [
        {
          "internalType": "address",
          "name": "",
          "type": "address"
        }
      ],
      "stateMutability": "view",
      "type": "function"
    },
    {
      "inputs": [
        {
          "internalType": "uint256",
          "name": "tokenId",
          "type": "uint256"
        }
      ],
      "name": "getTimestamp",
      "outputs": [
        {
          "internalType": "uint256",
          "name": "",
          "type": "uint256"
        }
      ],
      "stateMutability": "view",
      "type": "function"
    },
    {
      "inputs": [
        {
          "internalType": "address",
          "name": "owner",
          "type": "address"
        },
        {
          "internalType": "address",
          "name": "operator",
          "type": "address"
        }
      ],
      "name": "isApprovedForAll",
      "outputs": [
        {
          "internalType": "bool",
          "name": "",
          "type": "bool"
        }
      ],
      "stateMutability": "view",
      "type": "function"
    },
    {
      "inputs": [
        {
          "internalType": "address",
          "name": "owner",
          "type": "address"
        }
      ],
      "name": "isOwner",
      "outputs": [
        {
          "internalType": "bool",
          "name": "",
          "type": "bool"
        }
      ],
      "stateMutability": "view",
      "type": "function"
    },
    {
      "inputs": [],
      "name": "name",
      "outputs": [
        {
          "internalType": "string",
          "name": "",
          "type": "string"
        }
      ],
      "stateMutability": "view",
      "type": "function"
    },
    {
      "inputs": [],
      "name": "owner",
      "outputs": [
        {
          "internalType": "address",
          "name": "",
          "type": "address"
        }
      ],
      "stateMutability": "view",
      "type": "function"
    },
    {
      "inputs": [
        {
          "internalType": "uint256",
          "name": "tokenId",
          "type": "uint256"
        }
      ],
      "name": "ownerOf",
      "outputs": [
        {
          "internalType": "address",
          "name": "",
          "type": "address"
        }
      ],
      "stateMutability": "view",
      "type": "function"
    },
    {
      "inputs": [],
      "name": "pause",
      "outputs": [],
      "stateMutability": "nonpayable",
      "type": "function"
    },
    {
      "inputs": [],
      "name": "paused",
      "outputs": [
        {
          "internalType": "bool",
          "name": "",
          "type": "bool"
        }
      ],
      "stateMutability": "view",
      "type": "function"
    },
    {
      "inputs": [],
      "name": "renounceOwnership",
      "outputs": [],
      "stateMutability": "nonpayable",
      "type": "function"
    },
    {
      "inputs": [
        {
          "internalType": "address",
          "name": "to",
          "type": "address"
        }
      ],
      "name": "safeMint",
      "outputs": [],
      "stateMutability": "nonpayable",
      "type": "function"
    },
    {
      "inputs": [
        {
          "internalType": "address",
          "name": "from",
          "type": "address"
        },
        {
          "internalType": "address",
          "name": "to",
          "type": "address"
        },
        {
          "internalType": "uint256",
          "name": "tokenId",
          "type": "uint256"
        }
      ],
      "name": "safeTransferFrom",
      "outputs": [],
      "stateMutability": "nonpayable",
      "type": "function"
    },
    {
      "inputs": [
        {
          "internalType": "address",
          "name": "from",
          "type": "address"
        },
        {
          "internalType": "address",
          "name": "to",
          "type": "address"
        },
        {
          "internalType": "uint256",
          "name": "tokenId",
          "type": "uint256"
        },
        {
          "internalType": "bytes",
          "name": "_data",
          "type": "bytes"
        }
      ],
      "name": "safeTransferFrom",
      "outputs": [],
      "stateMutability": "nonpayable",
      "type": "function"
    },
    {
      "inputs": [
        {
          "internalType": "address",
          "name": "operator",
          "type": "address"
        },
        {
          "internalType": "bool",
          "name": "approved",
          "type": "bool"
        }
      ],
      "name": "setApprovalForAll",
      "outputs": [],
      "stateMutability": "nonpayable",
      "type": "function"
    },
    {
      "inputs": [
        {
          "internalType": "bytes4",
          "name": "interfaceId",
          "type": "bytes4"
        }
      ],
      "name": "supportsInterface",
      "outputs": [
        {
          "internalType": "bool",
          "name": "",
          "type": "bool"
        }
      ],
      "stateMutability": "view",
      "type": "function"
    },
    {
      "inputs": [],
      "name": "symbol",
      "outputs": [
        {
          "internalType": "string",
          "name": "",
          "type": "string"
        }
      ],
      "stateMutability": "view",
      "type": "function"
    },
    {
      "inputs": [
        {
          "internalType": "uint256",
          "name": "index",
          "type": "uint256"
        }
      ],
      "name": "tokenByIndex",
      "outputs": [
        {
          "internalType": "uint256",
          "name": "",
          "type": "uint256"
        }
      ],
      "stateMutability": "view",
      "type": "function"
    },
    {
      "inputs": [
        {
          "internalType": "address",
          "name": "owner",
          "type": "address"
        },
        {
          "internalType": "uint256",
          "name": "index",
          "type": "uint256"
        }
      ],
      "name": "tokenOfOwnerByIndex",
      "outputs": [
        {
          "internalType": "uint256",
          "name": "",
          "type": "uint256"
        }
      ],
      "stateMutability": "view",
      "type": "function"
    },
    {
      "inputs": [
        {
          "internalType": "uint256",
          "name": "tokenId",
          "type": "uint256"
        }
      ],
      "name": "tokenURI",
      "outputs": [
        {
          "internalType": "string",
          "name": "",
          "type": "string"
        }
      ],
      "stateMutability": "view",
      "type": "function"
    },
    {
      "inputs": [],
      "name": "totalSupply",
      "outputs": [
        {
          "internalType": "uint256",
          "name": "",
          "type": "uint256"
        }
      ],
      "stateMutability": "view",
      "type": "function"
    },
    {
      "inputs": [
        {
          "internalType": "address",
          "name": "from",
          "type": "address"
        },
        {
          "internalType": "address",
          "name": "to",
          "type": "address"
        },
        {
          "internalType": "uint256",
          "name": "tokenId",
          "type": "uint256"
        }
      ],
      "name": "transferFrom",
      "outputs": [],
      "stateMutability": "nonpayable",
      "type": "function"
    },
    {
      "inputs": [
        {
          "internalType": "address",
          "name": "newOwner",
          "type": "address"
        }
      ],
      "name": "transferOwnership",
      "outputs": [],
      "stateMutability": "nonpayable",
      "type": "function"
    },
    {
      "inputs": [],
      "name": "unpause",
      "outputs": [],
      "stateMutability": "nonpayable",
      "type": "function"
    }
  ],
  "bytecode": "0x60806040526000600d556000600e553480156200001b57600080fd5b506040518060400160405280600681526020017f52566f74657300000000000000000000000000000000000000000000000000008152506040518060400160405280600281526020017f52560000000000000000000000000000000000000000000000000000000000008152508160009080519060200190620000a0929190620001cb565b508060019080519060200190620000b9929190620001cb565b5050506000600a60006101000a81548160ff021916908315150217905550620000f7620000eb620000fd60201b60201c565b6200010560201b60201c565b620002e0565b600033905090565b6000600a60019054906101000a900473ffffffffffffffffffffffffffffffffffffffff16905081600a60016101000a81548173ffffffffffffffffffffffffffffffffffffffff021916908373ffffffffffffffffffffffffffffffffffffffff1602179055508173ffffffffffffffffffffffffffffffffffffffff168173ffffffffffffffffffffffffffffffffffffffff167f8be0079c531659141344cd1fd0a4f28419497f9722a3daafe3b4186f6b6457e060405160405180910390a35050565b828054620001d9906200027b565b90600052602060002090601f016020900481019282620001fd576000855562000249565b82601f106200021857805160ff191683800117855562000249565b8280016001018555821562000249579182015b82811115620002485782518255916020019190600101906200022b565b5b5090506200025891906200025c565b5090565b5b80821115620002775760008160009055506001016200025d565b5090565b600060028204905060018216806200029457607f821691505b60208210811415620002ab57620002aa620002b1565b5b50919050565b7f4e487b7100000000000000000000000000000000000000000000000000000000600052602260045260246000fd5b613e3280620002f06000396000f3fe608060405234801561001057600080fd5b50600436106101da5760003560e01c80636352211e1161010457806395d89b41116100a2578063b88d4fde11610071578063b88d4fde14610519578063c87b56dd14610535578063e985e9c514610565578063f2fde38b14610595576101da565b806395d89b4114610493578063a22cb465146104b1578063ac294b59146104cd578063b633620c146104e9576101da565b8063715018a6116100de578063715018a6146104455780637a5035cd1461044f5780638456cb591461046b5780638da5cb5b14610475576101da565b80636352211e146103db5780636c323d261461040b57806370a0823114610415576101da565b80632f54bf6e1161017c57806342842e0e1161014b57806342842e0e1461035557806342966c68146103715780634f6ccce71461038d5780635c975abb146103bd576101da565b80632f54bf6e146102cf5780632f745c59146102ff5780633f4ba83a1461032f57806340d097c314610339576101da565b8063095ea7b3116101b8578063095ea7b31461025d5780630a430f671461027957806318160ddd1461029557806323b872dd146102b3576101da565b806301ffc9a7146101df57806306fdde031461020f578063081812fc1461022d575b600080fd5b6101f960048036038101906101f49190612c3c565b6105b1565b6040516102069190613114565b60405180910390f35b6102176105c3565b604051610224919061312f565b60405180910390f35b61024760048036038101906102429190612c8e565b610655565b60405161025491906130ad565b60405180910390f35b61027760048036038101906102729190612c00565b6106da565b005b610293600480360381019061028e9190612a95565b6107f2565b005b61029d610800565b6040516102aa9190613411565b60405180910390f35b6102cd60048036038101906102c89190612afa565b61080d565b005b6102e960048036038101906102e49190612a95565b61086d565b6040516102f69190613114565b60405180910390f35b61031960048036038101906103149190612c00565b610892565b6040516103269190613411565b60405180910390f35b610337610937565b005b610353600480360381019061034e9190612a95565b6109bd565b005b61036f600480360381019061036a9190612afa565b610a13565b005b61038b60048036038101906103869190612c8e565b610a33565b005b6103a760048036038101906103a29190612c8e565b610a8f565b6040516103b49190613411565b60405180910390f35b6103c5610b26565b6040516103d29190613114565b60405180910390f35b6103f560048036038101906103f09190612c8e565b610b3d565b60405161040291906130ad565b60405180910390f35b610413610bef565b005b61042f600480360381019061042a9190612a95565b610c03565b60405161043c9190613411565b60405180910390f35b61044d610cbb565b005b61046960048036038101906104649190612c00565b610d43565b005b610473610db3565b005b61047d610e39565b60405161048a91906130ad565b60405180910390f35b61049b610e63565b6040516104a8919061312f565b60405180910390f35b6104cb60048036038101906104c69190612bc4565b610ef5565b005b6104e760048036038101906104e29190612c8e565b610f0b565b005b61050360048036038101906104fe9190612c8e565b610fe3565b6040516105109190613411565b60405180910390f35b610533600480360381019061052e9190612b49565b611000565b005b61054f600480360381019061054a9190612c8e565b611062565b60405161055c919061312f565b60405180910390f35b61057f600480360381019061057a9190612abe565b611109565b60405161058c9190613114565b60405180910390f35b6105af60048036038101906105aa9190612a95565b61119d565b005b60006105bc82611295565b9050919050565b6060600080546105d290613636565b80601f01602080910402602001604051908101604052809291908181526020018280546105fe90613636565b801561064b5780601f106106205761010080835404028352916020019161064b565b820191906000526020600020905b81548152906001019060200180831161062e57829003601f168201915b5050505050905090565b60006106608261130f565b61069f576040517f08c379a000000000000000000000000000000000000000000000000000000000815260040161069690613311565b60405180910390fd5b6004600083815260200190815260200160002060009054906101000a900473ffffffffffffffffffffffffffffffffffffffff169050919050565b60006106e582610b3d565b90508073ffffffffffffffffffffffffffffffffffffffff168373ffffffffffffffffffffffffffffffffffffffff161415610756576040517f08c379a000000000000000000000000000000000000000000000000000000000815260040161074d90613391565b60405180910390fd5b8073ffffffffffffffffffffffffffffffffffffffff1661077561137b565b73ffffffffffffffffffffffffffffffffffffffff1614806107a457506107a38161079e61137b565b611109565b5b6107e3576040517f08c379a00000000000000000000000000000000000000000000000000000000081526004016107da90613291565b60405180910390fd5b6107ed8383611383565b505050565b6107fd81600a610d43565b50565b6000600880549050905090565b61081e61081861137b565b8261143c565b61085d576040517f08c379a0000000000000000000000000000000000000000000000000000000008152600401610854906133b1565b60405180910390fd5b61086883838361151a565b505050565b60008061087983610c03565b1115610888576001905061088d565b600090505b919050565b600061089d83610c03565b82106108de576040517f08c379a00000000000000000000000000000000000000000000000000000000081526004016108d590613191565b60405180910390fd5b600660008473ffffffffffffffffffffffffffffffffffffffff1673ffffffffffffffffffffffffffffffffffffffff168152602001908152602001600020600083815260200190815260200160002054905092915050565b61093f61137b565b73ffffffffffffffffffffffffffffffffffffffff1661095d610e39565b73ffffffffffffffffffffffffffffffffffffffff16146109b3576040517f08c379a00000000000000000000000000000000000000000000000000000000081526004016109aa90613331565b60405180910390fd5b6109bb611776565b565b60006109c9600f611818565b90506109d5600f611826565b6109df828261183c565b42600c600083815260200190815260200160002081905550600e6000815480929190610a0a90613699565b91905055505050565b610a2e83838360405180602001604052806000815250611000565b505050565b610a44610a3e61137b565b8261143c565b610a83576040517f08c379a0000000000000000000000000000000000000000000000000000000008152600401610a7a906133f1565b60405180910390fd5b610a8c8161185a565b50565b6000610a99610800565b8210610ada576040517f08c379a0000000000000000000000000000000000000000000000000000000008152600401610ad1906133d1565b60405180910390fd5b60088281548110610b14577f4e487b7100000000000000000000000000000000000000000000000000000000600052603260045260246000fd5b90600052602060002001549050919050565b6000600a60009054906101000a900460ff16905090565b6000806002600084815260200190815260200160002060009054906101000a900473ffffffffffffffffffffffffffffffffffffffff169050600073ffffffffffffffffffffffffffffffffffffffff168173ffffffffffffffffffffffffffffffffffffffff161415610be6576040517f08c379a0000000000000000000000000000000000000000000000000000000008152600401610bdd906132d1565b60405180910390fd5b80915050919050565b6000620d2f009050610c0081610f0b565b50565b60008073ffffffffffffffffffffffffffffffffffffffff168273ffffffffffffffffffffffffffffffffffffffff161415610c74576040517f08c379a0000000000000000000000000000000000000000000000000000000008152600401610c6b906132b1565b60405180910390fd5b600360008373ffffffffffffffffffffffffffffffffffffffff1673ffffffffffffffffffffffffffffffffffffffff168152602001908152602001600020549050919050565b610cc361137b565b73ffffffffffffffffffffffffffffffffffffffff16610ce1610e39565b73ffffffffffffffffffffffffffffffffffffffff1614610d37576040517f08c379a0000000000000000000000000000000000000000000000000000000008152600401610d2e90613331565b60405180910390fd5b610d41600061196b565b565b601e811115610d87576040517f08c379a0000000000000000000000000000000000000000000000000000000008152600401610d7e90613171565b60405180910390fd5b60005b81811015610dae57610d9b836109bd565b8080610da690613699565b915050610d8a565b505050565b610dbb61137b565b73ffffffffffffffffffffffffffffffffffffffff16610dd9610e39565b73ffffffffffffffffffffffffffffffffffffffff1614610e2f576040517f08c379a0000000000000000000000000000000000000000000000000000000008152600401610e2690613331565b60405180910390fd5b610e37611a31565b565b6000600a60019054906101000a900473ffffffffffffffffffffffffffffffffffffffff16905090565b606060018054610e7290613636565b80601f0160208091040260200160405190810160405280929190818152602001828054610e9e90613636565b8015610eeb5780601f10610ec057610100808354040283529160200191610eeb565b820191906000526020600020905b815481529060010190602001808311610ece57829003601f168201915b5050505050905090565b610f07610f0061137b565b8383611ad4565b5050565b6000600d54905060008242610f20919061354c565b90506000600c60008481526020019081526020016000205490505b8181108015610f5857506001600e54610f54919061354c565b8311155b15610fd657610f668361185a565b8280610f7190613699565b935050600c6000848152602001908152602001600020549050610fc86040518060400160405280601481526020017f6275726e656420746f6b656e2061742069643a20000000000000000000000000815250611c41565b610fd183611cda565b610f3b565b82600d8190555050505050565b6000600c6000838152602001908152602001600020549050919050565b61101161100b61137b565b8361143c565b611050576040517f08c379a0000000000000000000000000000000000000000000000000000000008152600401611047906133b1565b60405180910390fd5b61105c84848484611d73565b50505050565b606061106d8261130f565b6110ac576040517f08c379a00000000000000000000000000000000000000000000000000000000081526004016110a390613371565b60405180910390fd5b60006110b6611dcf565b905060008151116110d65760405180602001604052806000815250611101565b806110e084611de6565b6040516020016110f1929190613089565b6040516020818303038152906040525b915050919050565b6000600560008473ffffffffffffffffffffffffffffffffffffffff1673ffffffffffffffffffffffffffffffffffffffff16815260200190815260200160002060008373ffffffffffffffffffffffffffffffffffffffff1673ffffffffffffffffffffffffffffffffffffffff16815260200190815260200160002060009054906101000a900460ff16905092915050565b6111a561137b565b73ffffffffffffffffffffffffffffffffffffffff166111c3610e39565b73ffffffffffffffffffffffffffffffffffffffff1614611219576040517f08c379a000000000000000000000000000000000000000000000000000000000815260040161121090613331565b60405180910390fd5b600073ffffffffffffffffffffffffffffffffffffffff168173ffffffffffffffffffffffffffffffffffffffff161415611289576040517f08c379a0000000000000000000000000000000000000000000000000000000008152600401611280906131d1565b60405180910390fd5b6112928161196b565b50565b60007f780e9d63000000000000000000000000000000000000000000000000000000007bffffffffffffffffffffffffffffffffffffffffffffffffffffffff1916827bffffffffffffffffffffffffffffffffffffffffffffffffffffffff19161480611308575061130782611f93565b5b9050919050565b60008073ffffffffffffffffffffffffffffffffffffffff166002600084815260200190815260200160002060009054906101000a900473ffffffffffffffffffffffffffffffffffffffff1673ffffffffffffffffffffffffffffffffffffffff1614159050919050565b600033905090565b816004600083815260200190815260200160002060006101000a81548173ffffffffffffffffffffffffffffffffffffffff021916908373ffffffffffffffffffffffffffffffffffffffff160217905550808273ffffffffffffffffffffffffffffffffffffffff166113f683610b3d565b73ffffffffffffffffffffffffffffffffffffffff167f8c5be1e5ebec7d5bd14f71427d1e84f3dd0314c0f7b2291e5b200ac8c7c3b92560405160405180910390a45050565b60006114478261130f565b611486576040517f08c379a000000000000000000000000000000000000000000000000000000000815260040161147d90613251565b60405180910390fd5b600061149183610b3d565b90508073ffffffffffffffffffffffffffffffffffffffff168473ffffffffffffffffffffffffffffffffffffffff16148061150057508373ffffffffffffffffffffffffffffffffffffffff166114e884610655565b73ffffffffffffffffffffffffffffffffffffffff16145b8061151157506115108185611109565b5b91505092915050565b8273ffffffffffffffffffffffffffffffffffffffff1661153a82610b3d565b73ffffffffffffffffffffffffffffffffffffffff1614611590576040517f08c379a000000000000000000000000000000000000000000000000000000000815260040161158790613351565b60405180910390fd5b600073ffffffffffffffffffffffffffffffffffffffff168273ffffffffffffffffffffffffffffffffffffffff161415611600576040517f08c379a00000000000000000000000000000000000000000000000000000000081526004016115f790613211565b60405180910390fd5b61160b838383612075565b611616600082611383565b6001600360008573ffffffffffffffffffffffffffffffffffffffff1673ffffffffffffffffffffffffffffffffffffffff1681526020019081526020016000206000828254611666919061354c565b925050819055506001600360008473ffffffffffffffffffffffffffffffffffffffff1673ffffffffffffffffffffffffffffffffffffffff16815260200190815260200160002060008282546116bd91906134c5565b92505081905550816002600083815260200190815260200160002060006101000a81548173ffffffffffffffffffffffffffffffffffffffff021916908373ffffffffffffffffffffffffffffffffffffffff160217905550808273ffffffffffffffffffffffffffffffffffffffff168473ffffffffffffffffffffffffffffffffffffffff167fddf252ad1be2c89b69c2b068fc378daa952ba7f163c4a11628f55a4df523b3ef60405160405180910390a4505050565b61177e610b26565b6117bd576040517f08c379a00000000000000000000000000000000000000000000000000000000081526004016117b490613151565b60405180910390fd5b6000600a60006101000a81548160ff0219169083151502179055507f5db9ee0a495bf2e6ff9c91a7834c1ba4fdd244a5e8aa4e537bd38aeae4b073aa61180161137b565b60405161180e91906130ad565b60405180910390a1565b600081600001549050919050565b6001816000016000828254019250508190555050565b6118568282604051806020016040528060008152506120cd565b5050565b600061186582610b3d565b905061187381600084612075565b61187e600083611383565b6001600360008373ffffffffffffffffffffffffffffffffffffffff1673ffffffffffffffffffffffffffffffffffffffff16815260200190815260200160002060008282546118ce919061354c565b925050819055506002600083815260200190815260200160002060006101000a81549073ffffffffffffffffffffffffffffffffffffffff021916905581600073ffffffffffffffffffffffffffffffffffffffff168273ffffffffffffffffffffffffffffffffffffffff167fddf252ad1be2c89b69c2b068fc378daa952ba7f163c4a11628f55a4df523b3ef60405160405180910390a45050565b6000600a60019054906101000a900473ffffffffffffffffffffffffffffffffffffffff16905081600a60016101000a81548173ffffffffffffffffffffffffffffffffffffffff021916908373ffffffffffffffffffffffffffffffffffffffff1602179055508173ffffffffffffffffffffffffffffffffffffffff168173ffffffffffffffffffffffffffffffffffffffff167f8be0079c531659141344cd1fd0a4f28419497f9722a3daafe3b4186f6b6457e060405160405180910390a35050565b611a39610b26565b15611a79576040517f08c379a0000000000000000000000000000000000000000000000000000000008152600401611a7090613271565b60405180910390fd5b6001600a60006101000a81548160ff0219169083151502179055507f62e78cea01bee320cd4e420270b5ea74000d11b0c9f74754ebdbfc544b05a258611abd61137b565b604051611aca91906130ad565b60405180910390a1565b8173ffffffffffffffffffffffffffffffffffffffff168373ffffffffffffffffffffffffffffffffffffffff161415611b43576040517f08c379a0000000000000000000000000000000000000000000000000000000008152600401611b3a90613231565b60405180910390fd5b80600560008573ffffffffffffffffffffffffffffffffffffffff1673ffffffffffffffffffffffffffffffffffffffff16815260200190815260200160002060008473ffffffffffffffffffffffffffffffffffffffff1673ffffffffffffffffffffffffffffffffffffffff16815260200190815260200160002060006101000a81548160ff0219169083151502179055508173ffffffffffffffffffffffffffffffffffffffff168373ffffffffffffffffffffffffffffffffffffffff167f17307eab39ab6107e8899845ad3d59bd9653f200f220920489ca2b5937696c3183604051611c349190613114565b60405180910390a3505050565b611cd781604051602401611c55919061312f565b6040516020818303038152906040527f41304fac000000000000000000000000000000000000000000000000000000007bffffffffffffffffffffffffffffffffffffffffffffffffffffffff19166020820180517bffffffffffffffffffffffffffffffffffffffffffffffffffffffff8381831617835250505050612128565b50565b611d7081604051602401611cee9190613411565b6040516020818303038152906040527ff5b1bba9000000000000000000000000000000000000000000000000000000007bffffffffffffffffffffffffffffffffffffffffffffffffffffffff19166020820180517bffffffffffffffffffffffffffffffffffffffffffffffffffffffff8381831617835250505050612128565b50565b611d7e84848461151a565b611d8a84848484612151565b611dc9576040517f08c379a0000000000000000000000000000000000000000000000000000000008152600401611dc0906131b1565b60405180910390fd5b50505050565b606060405180602001604052806000815250905090565b60606000821415611e2e576040518060400160405280600181526020017f30000000000000000000000000000000000000000000000000000000000000008152509050611f8e565b600082905060005b60008214611e60578080611e4990613699565b915050600a82611e59919061351b565b9150611e36565b60008167ffffffffffffffff811115611ea2577f4e487b7100000000000000000000000000000000000000000000000000000000600052604160045260246000fd5b6040519080825280601f01601f191660200182016040528015611ed45781602001600182028036833780820191505090505b5090505b60008514611f8757600182611eed919061354c565b9150600a85611efc91906136e2565b6030611f0891906134c5565b60f81b818381518110611f44577f4e487b7100000000000000000000000000000000000000000000000000000000600052603260045260246000fd5b60200101907effffffffffffffffffffffffffffffffffffffffffffffffffffffffffffff1916908160001a905350600a85611f80919061351b565b9450611ed8565b8093505050505b919050565b60007f80ac58cd000000000000000000000000000000000000000000000000000000007bffffffffffffffffffffffffffffffffffffffffffffffffffffffff1916827bffffffffffffffffffffffffffffffffffffffffffffffffffffffff1916148061205e57507f5b5e139f000000000000000000000000000000000000000000000000000000007bffffffffffffffffffffffffffffffffffffffffffffffffffffffff1916827bffffffffffffffffffffffffffffffffffffffffffffffffffffffff1916145b8061206e575061206d826122e8565b5b9050919050565b61207d610b26565b156120bd576040517f08c379a00000000000000000000000000000000000000000000000000000000081526004016120b490613271565b60405180910390fd5b6120c8838383612352565b505050565b6120d78383612466565b6120e46000848484612151565b612123576040517f08c379a000000000000000000000000000000000000000000000000000000000815260040161211a906131b1565b60405180910390fd5b505050565b60008151905060006a636f6e736f6c652e6c6f679050602083016000808483855afa5050505050565b60006121728473ffffffffffffffffffffffffffffffffffffffff16612634565b156122db578373ffffffffffffffffffffffffffffffffffffffff1663150b7a0261219b61137b565b8786866040518563ffffffff1660e01b81526004016121bd94939291906130c8565b602060405180830381600087803b1580156121d757600080fd5b505af192505050801561220857506040513d601f19601f820116820180604052508101906122059190612c65565b60015b61228b573d8060008114612238576040519150601f19603f3d011682016040523d82523d6000602084013e61223d565b606091505b50600081511415612283576040517f08c379a000000000000000000000000000000000000000000000000000000000815260040161227a906131b1565b60405180910390fd5b805181602001fd5b63150b7a0260e01b7bffffffffffffffffffffffffffffffffffffffffffffffffffffffff1916817bffffffffffffffffffffffffffffffffffffffffffffffffffffffff1916149150506122e0565b600190505b949350505050565b60007f01ffc9a7000000000000000000000000000000000000000000000000000000007bffffffffffffffffffffffffffffffffffffffffffffffffffffffff1916827bffffffffffffffffffffffffffffffffffffffffffffffffffffffff1916149050919050565b61235d838383612647565b600073ffffffffffffffffffffffffffffffffffffffff168373ffffffffffffffffffffffffffffffffffffffff1614156123a05761239b8161264c565b6123df565b8173ffffffffffffffffffffffffffffffffffffffff168373ffffffffffffffffffffffffffffffffffffffff16146123de576123dd8382612695565b5b5b600073ffffffffffffffffffffffffffffffffffffffff168273ffffffffffffffffffffffffffffffffffffffff1614156124225761241d81612802565b612461565b8273ffffffffffffffffffffffffffffffffffffffff168273ffffffffffffffffffffffffffffffffffffffff16146124605761245f8282612945565b5b5b505050565b600073ffffffffffffffffffffffffffffffffffffffff168273ffffffffffffffffffffffffffffffffffffffff1614156124d6576040517f08c379a00000000000000000000000000000000000000000000000000000000081526004016124cd906132f1565b60405180910390fd5b6124df8161130f565b1561251f576040517f08c379a0000000000000000000000000000000000000000000000000000000008152600401612516906131f1565b60405180910390fd5b61252b60008383612075565b6001600360008473ffffffffffffffffffffffffffffffffffffffff1673ffffffffffffffffffffffffffffffffffffffff168152602001908152602001600020600082825461257b91906134c5565b92505081905550816002600083815260200190815260200160002060006101000a81548173ffffffffffffffffffffffffffffffffffffffff021916908373ffffffffffffffffffffffffffffffffffffffff160217905550808273ffffffffffffffffffffffffffffffffffffffff16600073ffffffffffffffffffffffffffffffffffffffff167fddf252ad1be2c89b69c2b068fc378daa952ba7f163c4a11628f55a4df523b3ef60405160405180910390a45050565b600080823b905060008111915050919050565b505050565b6008805490506009600083815260200190815260200160002081905550600881908060018154018082558091505060019003906000526020600020016000909190919091505550565b600060016126a284610c03565b6126ac919061354c565b9050600060076000848152602001908152602001600020549050818114612791576000600660008673ffffffffffffffffffffffffffffffffffffffff1673ffffffffffffffffffffffffffffffffffffffff168152602001908152602001600020600084815260200190815260200160002054905080600660008773ffffffffffffffffffffffffffffffffffffffff1673ffffffffffffffffffffffffffffffffffffffff168152602001908152602001600020600084815260200190815260200160002081905550816007600083815260200190815260200160002081905550505b6007600084815260200190815260200160002060009055600660008573ffffffffffffffffffffffffffffffffffffffff1673ffffffffffffffffffffffffffffffffffffffff16815260200190815260200160002060008381526020019081526020016000206000905550505050565b60006001600880549050612816919061354c565b905060006009600084815260200190815260200160002054905060006008838154811061286c577f4e487b7100000000000000000000000000000000000000000000000000000000600052603260045260246000fd5b9060005260206000200154905080600883815481106128b4577f4e487b7100000000000000000000000000000000000000000000000000000000600052603260045260246000fd5b906000526020600020018190555081600960008381526020019081526020016000208190555060096000858152602001908152602001600020600090556008805480612929577f4e487b7100000000000000000000000000000000000000000000000000000000600052603160045260246000fd5b6001900381819060005260206000200160009055905550505050565b600061295083610c03565b905081600660008573ffffffffffffffffffffffffffffffffffffffff1673ffffffffffffffffffffffffffffffffffffffff168152602001908152602001600020600083815260200190815260200160002081905550806007600084815260200190815260200160002081905550505050565b60006129d76129d284613451565b61342c565b9050828152602081018484840111156129ef57600080fd5b6129fa8482856135f4565b509392505050565b600081359050612a1181613da0565b92915050565b600081359050612a2681613db7565b92915050565b600081359050612a3b81613dce565b92915050565b600081519050612a5081613dce565b92915050565b600082601f830112612a6757600080fd5b8135612a778482602086016129c4565b91505092915050565b600081359050612a8f81613de5565b92915050565b600060208284031215612aa757600080fd5b6000612ab584828501612a02565b91505092915050565b60008060408385031215612ad157600080fd5b6000612adf85828601612a02565b9250506020612af085828601612a02565b9150509250929050565b600080600060608486031215612b0f57600080fd5b6000612b1d86828701612a02565b9350506020612b2e86828701612a02565b9250506040612b3f86828701612a80565b9150509250925092565b60008060008060808587031215612b5f57600080fd5b6000612b6d87828801612a02565b9450506020612b7e87828801612a02565b9350506040612b8f87828801612a80565b925050606085013567ffffffffffffffff811115612bac57600080fd5b612bb887828801612a56565b91505092959194509250565b60008060408385031215612bd757600080fd5b6000612be585828601612a02565b9250506020612bf685828601612a17565b9150509250929050565b60008060408385031215612c1357600080fd5b6000612c2185828601612a02565b9250506020612c3285828601612a80565b9150509250929050565b600060208284031215612c4e57600080fd5b6000612c5c84828501612a2c565b91505092915050565b600060208284031215612c7757600080fd5b6000612c8584828501612a41565b91505092915050565b600060208284031215612ca057600080fd5b6000612cae84828501612a80565b91505092915050565b612cc081613580565b82525050565b612ccf81613592565b82525050565b6000612ce082613482565b612cea8185613498565b9350612cfa818560208601613603565b612d03816137cf565b840191505092915050565b6000612d198261348d565b612d2381856134a9565b9350612d33818560208601613603565b612d3c816137cf565b840191505092915050565b6000612d528261348d565b612d5c81856134ba565b9350612d6c818560208601613603565b80840191505092915050565b6000612d856014836134a9565b9150612d90826137e0565b602082019050919050565b6000612da86020836134a9565b9150612db382613809565b602082019050919050565b6000612dcb602b836134a9565b9150612dd682613832565b604082019050919050565b6000612dee6032836134a9565b9150612df982613881565b604082019050919050565b6000612e116026836134a9565b9150612e1c826138d0565b604082019050919050565b6000612e34601c836134a9565b9150612e3f8261391f565b602082019050919050565b6000612e576024836134a9565b9150612e6282613948565b604082019050919050565b6000612e7a6019836134a9565b9150612e8582613997565b602082019050919050565b6000612e9d602c836134a9565b9150612ea8826139c0565b604082019050919050565b6000612ec06010836134a9565b9150612ecb82613a0f565b602082019050919050565b6000612ee36038836134a9565b9150612eee82613a38565b604082019050919050565b6000612f06602a836134a9565b9150612f1182613a87565b604082019050919050565b6000612f296029836134a9565b9150612f3482613ad6565b604082019050919050565b6000612f4c6020836134a9565b9150612f5782613b25565b602082019050919050565b6000612f6f602c836134a9565b9150612f7a82613b4e565b604082019050919050565b6000612f926020836134a9565b9150612f9d82613b9d565b602082019050919050565b6000612fb56029836134a9565b9150612fc082613bc6565b604082019050919050565b6000612fd8602f836134a9565b9150612fe382613c15565b604082019050919050565b6000612ffb6021836134a9565b915061300682613c64565b604082019050919050565b600061301e6031836134a9565b915061302982613cb3565b604082019050919050565b6000613041602c836134a9565b915061304c82613d02565b604082019050919050565b60006130646030836134a9565b915061306f82613d51565b604082019050919050565b613083816135ea565b82525050565b60006130958285612d47565b91506130a18284612d47565b91508190509392505050565b60006020820190506130c26000830184612cb7565b92915050565b60006080820190506130dd6000830187612cb7565b6130ea6020830186612cb7565b6130f7604083018561307a565b81810360608301526131098184612cd5565b905095945050505050565b60006020820190506131296000830184612cc6565b92915050565b600060208201905081810360008301526131498184612d0e565b905092915050565b6000602082019050818103600083015261316a81612d78565b9050919050565b6000602082019050818103600083015261318a81612d9b565b9050919050565b600060208201905081810360008301526131aa81612dbe565b9050919050565b600060208201905081810360008301526131ca81612de1565b9050919050565b600060208201905081810360008301526131ea81612e04565b9050919050565b6000602082019050818103600083015261320a81612e27565b9050919050565b6000602082019050818103600083015261322a81612e4a565b9050919050565b6000602082019050818103600083015261324a81612e6d565b9050919050565b6000602082019050818103600083015261326a81612e90565b9050919050565b6000602082019050818103600083015261328a81612eb3565b9050919050565b600060208201905081810360008301526132aa81612ed6565b9050919050565b600060208201905081810360008301526132ca81612ef9565b9050919050565b600060208201905081810360008301526132ea81612f1c565b9050919050565b6000602082019050818103600083015261330a81612f3f565b9050919050565b6000602082019050818103600083015261332a81612f62565b9050919050565b6000602082019050818103600083015261334a81612f85565b9050919050565b6000602082019050818103600083015261336a81612fa8565b9050919050565b6000602082019050818103600083015261338a81612fcb565b9050919050565b600060208201905081810360008301526133aa81612fee565b9050919050565b600060208201905081810360008301526133ca81613011565b9050919050565b600060208201905081810360008301526133ea81613034565b9050919050565b6000602082019050818103600083015261340a81613057565b9050919050565b6000602082019050613426600083018461307a565b92915050565b6000613436613447565b90506134428282613668565b919050565b6000604051905090565b600067ffffffffffffffff82111561346c5761346b6137a0565b5b613475826137cf565b9050602081019050919050565b600081519050919050565b600081519050919050565b600082825260208201905092915050565b600082825260208201905092915050565b600081905092915050565b60006134d0826135ea565b91506134db836135ea565b9250827fffffffffffffffffffffffffffffffffffffffffffffffffffffffffffffffff038211156135105761350f613713565b5b828201905092915050565b6000613526826135ea565b9150613531836135ea565b92508261354157613540613742565b5b828204905092915050565b6000613557826135ea565b9150613562836135ea565b92508282101561357557613574613713565b5b828203905092915050565b600061358b826135ca565b9050919050565b60008115159050919050565b60007fffffffff0000000000000000000000000000000000000000000000000000000082169050919050565b600073ffffffffffffffffffffffffffffffffffffffff82169050919050565b6000819050919050565b82818337600083830152505050565b60005b83811015613621578082015181840152602081019050613606565b83811115613630576000848401525b50505050565b6000600282049050600182168061364e57607f821691505b6020821081141561366257613661613771565b5b50919050565b613671826137cf565b810181811067ffffffffffffffff821117156136905761368f6137a0565b5b80604052505050565b60006136a4826135ea565b91507fffffffffffffffffffffffffffffffffffffffffffffffffffffffffffffffff8214156136d7576136d6613713565b5b600182019050919050565b60006136ed826135ea565b91506136f8836135ea565b92508261370857613707613742565b5b828206905092915050565b7f4e487b7100000000000000000000000000000000000000000000000000000000600052601160045260246000fd5b7f4e487b7100000000000000000000000000000000000000000000000000000000600052601260045260246000fd5b7f4e487b7100000000000000000000000000000000000000000000000000000000600052602260045260246000fd5b7f4e487b7100000000000000000000000000000000000000000000000000000000600052604160045260246000fd5b6000601f19601f8301169050919050565b7f5061757361626c653a206e6f7420706175736564000000000000000000000000600082015250565b7f52657075746174696f6e20616d6f756e7420697320746f6f2068696768207864600082015250565b7f455243373231456e756d657261626c653a206f776e657220696e646578206f7560008201527f74206f6620626f756e6473000000000000000000000000000000000000000000602082015250565b7f4552433732313a207472616e7366657220746f206e6f6e20455243373231526560008201527f63656976657220696d706c656d656e7465720000000000000000000000000000602082015250565b7f4f776e61626c653a206e6577206f776e657220697320746865207a65726f206160008201527f6464726573730000000000000000000000000000000000000000000000000000602082015250565b7f4552433732313a20746f6b656e20616c7265616479206d696e74656400000000600082015250565b7f4552433732313a207472616e7366657220746f20746865207a65726f2061646460008201527f7265737300000000000000000000000000000000000000000000000000000000602082015250565b7f4552433732313a20617070726f766520746f2063616c6c657200000000000000600082015250565b7f4552433732313a206f70657261746f7220717565727920666f72206e6f6e657860008201527f697374656e7420746f6b656e0000000000000000000000000000000000000000602082015250565b7f5061757361626c653a2070617573656400000000000000000000000000000000600082015250565b7f4552433732313a20617070726f76652063616c6c6572206973206e6f74206f7760008201527f6e6572206e6f7220617070726f76656420666f7220616c6c0000000000000000602082015250565b7f4552433732313a2062616c616e636520717565727920666f7220746865207a6560008201527f726f206164647265737300000000000000000000000000000000000000000000602082015250565b7f4552433732313a206f776e657220717565727920666f72206e6f6e657869737460008201527f656e7420746f6b656e0000000000000000000000000000000000000000000000602082015250565b7f4552433732313a206d696e7420746f20746865207a65726f2061646472657373600082015250565b7f4552433732313a20617070726f76656420717565727920666f72206e6f6e657860008201527f697374656e7420746f6b656e0000000000000000000000000000000000000000602082015250565b7f4f776e61626c653a2063616c6c6572206973206e6f7420746865206f776e6572600082015250565b7f4552433732313a207472616e73666572206f6620746f6b656e2074686174206960008201527f73206e6f74206f776e0000000000000000000000000000000000000000000000602082015250565b7f4552433732314d657461646174613a2055524920717565727920666f72206e6f60008201527f6e6578697374656e7420746f6b656e0000000000000000000000000000000000602082015250565b7f4552433732313a20617070726f76616c20746f2063757272656e74206f776e6560008201527f7200000000000000000000000000000000000000000000000000000000000000602082015250565b7f4552433732313a207472616e736665722063616c6c6572206973206e6f74206f60008201527f776e6572206e6f7220617070726f766564000000000000000000000000000000602082015250565b7f455243373231456e756d657261626c653a20676c6f62616c20696e646578206f60008201527f7574206f6620626f756e64730000000000000000000000000000000000000000602082015250565b7f4552433732314275726e61626c653a2063616c6c6572206973206e6f74206f7760008201527f6e6572206e6f7220617070726f76656400000000000000000000000000000000602082015250565b613da981613580565b8114613db457600080fd5b50565b613dc081613592565b8114613dcb57600080fd5b50565b613dd78161359e565b8114613de257600080fd5b50565b613dee816135ea565b8114613df957600080fd5b5056fea2646970667358221220c9b22e81e2fd0ab12d93e92040a2c4c3350ab5692589d0f8084dfd81ad0af32e64736f6c63430008040033",
  "linkReferences": {},
  "deployedLinkReferences": {}
}