{
  "_format": "hh-sol-artifact-1",
  "contractName": "Voting",
  "sourceName": "contracts/Voting.sol",
  "abi": [
    {
      "inputs": [],
      "stateMutability": "nonpayable",
      "type": "constructor"
    },
    {
      "inputs": [],
      "name": "RVotesAddr",
      "outputs": [
        {
          "internalType": "address",
          "name": "",
          "type": "address"
        }
      ],
      "stateMutability": "view",
      "type": "function"
    },
    {
      "inputs": [
        {
          "internalType": "address",
          "name": "owner",
          "type": "address"
        }
      ],
      "name": "balanceOf",
      "outputs": [
        {
          "internalType": "uint256",
          "name": "",
          "type": "uint256"
        }
      ],
      "stateMutability": "view",
      "type": "function"
    },
    {
      "inputs": [
        {
          "internalType": "string",
          "name": "_prompt",
          "type": "string"
        },
        {
          "internalType": "uint256",
          "name": "_numOptions",
          "type": "uint256"
        },
        {
          "internalType": "uint256",
          "name": "_votingDuration",
          "type": "uint256"
        }
      ],
      "name": "createTopic",
      "outputs": [],
      "stateMutability": "nonpayable",
      "type": "function"
    },
    {
      "inputs": [
        {
          "internalType": "uint256",
          "name": "topic_id",
          "type": "uint256"
        }
      ],
      "name": "distributeReputation",
      "outputs": [
        {
          "internalType": "bool",
          "name": "",
          "type": "bool"
        }
      ],
      "stateMutability": "nonpayable",
      "type": "function"
    },
    {
      "inputs": [
        {
          "internalType": "uint256",
          "name": "topic_id",
          "type": "uint256"
        }
      ],
      "name": "getState",
      "outputs": [
        {
          "internalType": "string",
          "name": "",
          "type": "string"
        }
      ],
      "stateMutability": "view",
      "type": "function"
    },
    {
      "inputs": [],
      "name": "nextTopicNumber",
      "outputs": [
        {
          "internalType": "uint256",
          "name": "",
          "type": "uint256"
        }
      ],
      "stateMutability": "view",
      "type": "function"
    },
    {
      "inputs": [
        {
          "internalType": "uint256",
          "name": "topic_id",
          "type": "uint256"
        }
      ],
      "name": "setState",
      "outputs": [],
      "stateMutability": "nonpayable",
      "type": "function"
    },
    {
      "inputs": [
        {
          "internalType": "uint256",
          "name": "",
          "type": "uint256"
        }
      ],
      "name": "topics",
      "outputs": [
        {
          "internalType": "string",
          "name": "prompt",
          "type": "string"
        },
        {
          "internalType": "uint256",
          "name": "numOptions",
          "type": "uint256"
        },
        {
          "internalType": "address",
          "name": "proposer",
          "type": "address"
        },
        {
          "internalType": "enum Voting.State",
          "name": "state",
          "type": "uint8"
        },
        {
          "internalType": "uint256",
          "name": "endBlock",
          "type": "uint256"
        },
        {
          "internalType": "bool",
          "name": "distributed",
          "type": "bool"
        }
      ],
      "stateMutability": "view",
      "type": "function"
    },
    {
      "inputs": [
        {
          "internalType": "uint256",
          "name": "topic_id",
          "type": "uint256"
        },
        {
          "internalType": "uint256",
          "name": "optionNo",
          "type": "uint256"
        }
      ],
      "name": "vote",
      "outputs": [
        {
          "internalType": "bool",
          "name": "",
          "type": "bool"
        }
      ],
      "stateMutability": "nonpayable",
      "type": "function"
    }
  ],
  "bytecode": "0x608060405234801561001057600080fd5b50600060018190555073982a97cef32dfcc83015eca074fa8470d2e595e2600260006101000a81548173ffffffffffffffffffffffffffffffffffffffff021916908373ffffffffffffffffffffffffffffffffffffffff160217905550611c2a8061007d6000396000f3fe608060405234801561001057600080fd5b50600436106100935760003560e01c806370a082311161006657806370a0823114610137578063751ef3af14610167578063a9e966b714610185578063b384abef146101a1578063caeb4ec2146101d157610093565b80630a5e47bb1461009857806318d9adab146100b4578063247c8f56146100e957806344c9af2814610107575b600080fd5b6100b260048036038101906100ad91906112ec565b610201565b005b6100ce60048036038101906100c99190611353565b610416565b6040516100e0969594939291906115a3565b60405180910390f35b6100f1610514565b6040516100fe919061154b565b60405180910390f35b610121600480360381019061011c9190611353565b61053a565b60405161012e9190611581565b60405180910390f35b610151600480360381019061014c919061129a565b610765565b60405161015e91906116eb565b60405180910390f35b61016f610819565b60405161017c91906116eb565b60405180910390f35b61019f600480360381019061019a9190611353565b61081f565b005b6101bb60048036038101906101b691906113a5565b6109c4565b6040516101c89190611566565b60405180910390f35b6101eb60048036038101906101e69190611353565b610d98565b6040516101f89190611566565b60405180910390f35b600260009054906101000a900473ffffffffffffffffffffffffffffffffffffffff1673ffffffffffffffffffffffffffffffffffffffff16632f54bf6e336040518263ffffffff1660e01b815260040161025c919061154b565b60206040518083038186803b15801561027457600080fd5b505afa158015610288573d6000803e3d6000fd5b505050506040513d601f19601f820116820180604052508101906102ac91906112c3565b6102eb576040517f08c379a00000000000000000000000000000000000000000000000000000000081526004016102e2906116cb565b60405180910390fd5b6000806000600154815260200190815260200160002090508381600001908051906020019061031b92919061113b565b50828160010181905550338160020160006101000a81548173ffffffffffffffffffffffffffffffffffffffff021916908373ffffffffffffffffffffffffffffffffffffffff160217905550600f8261037591906117ce565b436103809190611778565b816003018190555060008160020160146101000a81548160ff021916908360028111156103d6577f4e487b7100000000000000000000000000000000000000000000000000000000600052602160045260246000fd5b021790555060008160070160006101000a81548160ff0219169083151502179055506001600081548092919061040b90611911565b919050555050505050565b6000602052806000526040600020600091509050806000018054610439906118ae565b80601f0160208091040260200160405190810160405280929190818152602001828054610465906118ae565b80156104b25780601f10610487576101008083540402835291602001916104b2565b820191906000526020600020905b81548152906001019060200180831161049557829003601f168201915b5050505050908060010154908060020160009054906101000a900473ffffffffffffffffffffffffffffffffffffffff16908060020160149054906101000a900460ff16908060030154908060070160009054906101000a900460ff16905086565b600260009054906101000a900473ffffffffffffffffffffffffffffffffffffffff1681565b60606001548210610580576040517f08c379a00000000000000000000000000000000000000000000000000000000081526004016105779061160b565b60405180910390fd5b60008060008481526020019081526020016000209050600060028111156105d0577f4e487b7100000000000000000000000000000000000000000000000000000000600052602160045260246000fd5b8160020160149054906101000a900460ff16600281111561061a577f4e487b7100000000000000000000000000000000000000000000000000000000600052602160045260246000fd5b141561065e576040518060400160405280600781526020017f52756e6e696e6700000000000000000000000000000000000000000000000000815250915050610760565b60016002811115610698577f4e487b7100000000000000000000000000000000000000000000000000000000600052602160045260246000fd5b8160020160149054906101000a900460ff1660028111156106e2577f4e487b7100000000000000000000000000000000000000000000000000000000600052602160045260246000fd5b1415610726576040518060400160405280600981526020017f436f6d706c657465640000000000000000000000000000000000000000000000815250915050610760565b6040518060400160405280600881526020017f43616e63656c65640000000000000000000000000000000000000000000000008152509150505b919050565b6000600260009054906101000a900473ffffffffffffffffffffffffffffffffffffffff1673ffffffffffffffffffffffffffffffffffffffff166370a08231836040518263ffffffff1660e01b81526004016107c2919061154b565b60206040518083038186803b1580156107da57600080fd5b505afa1580156107ee573d6000803e3d6000fd5b505050506040513d601f19601f82011682018060405250810190610812919061137c565b9050919050565b60015481565b6001548110610863576040517f08c379a000000000000000000000000000000000000000000000000000000000815260040161085a9061160b565b60405180910390fd5b600080600083815260200190815260200160002090506002808111156108b2577f4e487b7100000000000000000000000000000000000000000000000000000000600052602160045260246000fd5b8160020160149054906101000a900460ff1660028111156108fc577f4e487b7100000000000000000000000000000000000000000000000000000000600052602160045260246000fd5b141561090857506109c1565b8060030154431161096b5760008160020160146101000a81548160ff02191690836002811115610961577f4e487b7100000000000000000000000000000000000000000000000000000000600052602160045260246000fd5b02179055506109bf565b60018160020160146101000a81548160ff021916908360028111156109b9577f4e487b7100000000000000000000000000000000000000000000000000000000600052602160045260246000fd5b02179055505b505b50565b60006001548310610a0a576040517f08c379a0000000000000000000000000000000000000000000000000000000008152600401610a019061160b565b60405180910390fd5b60008060008581526020019081526020016000209050610a298461081f565b600083118015610a3d575080600101548311155b610a7c576040517f08c379a0000000000000000000000000000000000000000000000000000000008152600401610a739061162b565b60405180910390fd5b60006002811115610ab6577f4e487b7100000000000000000000000000000000000000000000000000000000600052602160045260246000fd5b8160020160149054906101000a900460ff166002811115610b00577f4e487b7100000000000000000000000000000000000000000000000000000000600052602160045260246000fd5b14610b40576040517f08c379a0000000000000000000000000000000000000000000000000000000008152600401610b379061166b565b60405180910390fd5b600260009054906101000a900473ffffffffffffffffffffffffffffffffffffffff1673ffffffffffffffffffffffffffffffffffffffff16632f54bf6e336040518263ffffffff1660e01b8152600401610b9b919061154b565b60206040518083038186803b158015610bb357600080fd5b505afa158015610bc7573d6000803e3d6000fd5b505050506040513d601f19601f82011682018060405250810190610beb91906112c3565b610c2a576040517f08c379a0000000000000000000000000000000000000000000000000000000008152600401610c21906116cb565b60405180910390fd5b60008160050160003373ffffffffffffffffffffffffffffffffffffffff1673ffffffffffffffffffffffffffffffffffffffff1681526020019081526020016000205414610cae576040517f08c379a0000000000000000000000000000000000000000000000000000000008152600401610ca5906116ab565b60405180910390fd5b828160050160003373ffffffffffffffffffffffffffffffffffffffff1673ffffffffffffffffffffffffffffffffffffffff1681526020019081526020016000208190555080600401339080600181540180825580915050600190039060005260206000200160009091909190916101000a81548173ffffffffffffffffffffffffffffffffffffffff021916908373ffffffffffffffffffffffffffffffffffffffff160217905550610d6233610765565b8160060160008581526020019081526020016000206000828254610d869190611778565b92505081905550600191505092915050565b600080610da483610fa5565b9050600080600085815260200190815260200160002090508060070160009054906101000a900460ff1615610e0e576040517f08c379a0000000000000000000000000000000000000000000000000000000008152600401610e059061168b565b60405180910390fd5b60005b8160040180549050811015610f7c576000826004018281548110610e5e577f4e487b7100000000000000000000000000000000000000000000000000000000600052603260045260246000fd5b9060005260206000200160009054906101000a900473ffffffffffffffffffffffffffffffffffffffff16905060008360050160008373ffffffffffffffffffffffffffffffffffffffff1673ffffffffffffffffffffffffffffffffffffffff16815260200190815260200160002054905084811415610f6757600260009054906101000a900473ffffffffffffffffffffffffffffffffffffffff1673ffffffffffffffffffffffffffffffffffffffff16630a430f67836040518263ffffffff1660e01b8152600401610f34919061154b565b600060405180830381600087803b158015610f4e57600080fd5b505af1158015610f62573d6000803e3d6000fd5b505050505b50508080610f7490611911565b915050610e11565b5060018160070160006101000a81548160ff021916908315150217905550600192505050919050565b60006001548210610feb576040517f08c379a0000000000000000000000000000000000000000000000000000000008152600401610fe29061160b565b60405180910390fd5b6000806000848152602001908152602001600020905061100a8361081f565b60016002811115611044577f4e487b7100000000000000000000000000000000000000000000000000000000600052602160045260246000fd5b8160020160149054906101000a900460ff16600281111561108e577f4e487b7100000000000000000000000000000000000000000000000000000000600052602160045260246000fd5b146110ce576040517f08c379a00000000000000000000000000000000000000000000000000000000081526004016110c59061164b565b60405180910390fd5b6000806000600190505b8360010154811161112f578184600601600083815260200190815260200160002054111561111c578092508360060160008281526020019081526020016000205491505b808061112790611911565b9150506110d8565b50819350505050919050565b828054611147906118ae565b90600052602060002090601f01602090048101928261116957600085556111b0565b82601f1061118257805160ff19168380011785556111b0565b828001600101855582156111b0579182015b828111156111af578251825591602001919060010190611194565b5b5090506111bd91906111c1565b5090565b5b808211156111da5760008160009055506001016111c2565b5090565b60006111f16111ec8461172b565b611706565b90508281526020810184848401111561120957600080fd5b61121484828561186c565b509392505050565b60008135905061122b81611baf565b92915050565b60008151905061124081611bc6565b92915050565b600082601f83011261125757600080fd5b81356112678482602086016111de565b91505092915050565b60008135905061127f81611bdd565b92915050565b60008151905061129481611bdd565b92915050565b6000602082840312156112ac57600080fd5b60006112ba8482850161121c565b91505092915050565b6000602082840312156112d557600080fd5b60006112e384828501611231565b91505092915050565b60008060006060848603121561130157600080fd5b600084013567ffffffffffffffff81111561131b57600080fd5b61132786828701611246565b935050602061133886828701611270565b925050604061134986828701611270565b9150509250925092565b60006020828403121561136557600080fd5b600061137384828501611270565b91505092915050565b60006020828403121561138e57600080fd5b600061139c84828501611285565b91505092915050565b600080604083850312156113b857600080fd5b60006113c685828601611270565b92505060206113d785828601611270565b9150509250929050565b6113ea816117ff565b82525050565b6113f981611811565b82525050565b6114088161185a565b82525050565b60006114198261175c565b6114238185611767565b935061143381856020860161187b565b61143c81611a45565b840191505092915050565b6000611454601a83611767565b915061145f82611a56565b602082019050919050565b6000611477601283611767565b915061148282611a7f565b602082019050919050565b600061149a601683611767565b91506114a582611aa8565b602082019050919050565b60006114bd601e83611767565b91506114c882611ad1565b602082019050919050565b60006114e0602883611767565b91506114eb82611afa565b604082019050919050565b6000611503601683611767565b915061150e82611b49565b602082019050919050565b6000611526601f83611767565b915061153182611b72565b602082019050919050565b61154581611850565b82525050565b600060208201905061156060008301846113e1565b92915050565b600060208201905061157b60008301846113f0565b92915050565b6000602082019050818103600083015261159b818461140e565b905092915050565b600060c08201905081810360008301526115bd818961140e565b90506115cc602083018861153c565b6115d960408301876113e1565b6115e660608301866113ff565b6115f3608083018561153c565b61160060a08301846113f0565b979650505050505050565b6000602082019050818103600083015261162481611447565b9050919050565b600060208201905081810360008301526116448161146a565b9050919050565b600060208201905081810360008301526116648161148d565b9050919050565b60006020820190508181036000830152611684816114b0565b9050919050565b600060208201905081810360008301526116a4816114d3565b9050919050565b600060208201905081810360008301526116c4816114f6565b9050919050565b600060208201905081810360008301526116e481611519565b9050919050565b6000602082019050611700600083018461153c565b92915050565b6000611710611721565b905061171c82826118e0565b919050565b6000604051905090565b600067ffffffffffffffff82111561174657611745611a16565b5b61174f82611a45565b9050602081019050919050565b600081519050919050565b600082825260208201905092915050565b600061178382611850565b915061178e83611850565b9250827fffffffffffffffffffffffffffffffffffffffffffffffffffffffffffffffff038211156117c3576117c261195a565b5b828201905092915050565b60006117d982611850565b91506117e483611850565b9250826117f4576117f3611989565b5b828204905092915050565b600061180a82611830565b9050919050565b60008115159050919050565b600081905061182b82611b9b565b919050565b600073ffffffffffffffffffffffffffffffffffffffff82169050919050565b6000819050919050565b60006118658261181d565b9050919050565b82818337600083830152505050565b60005b8381101561189957808201518184015260208101905061187e565b838111156118a8576000848401525b50505050565b600060028204905060018216806118c657607f821691505b602082108114156118da576118d96119e7565b5b50919050565b6118e982611a45565b810181811067ffffffffffffffff8211171561190857611907611a16565b5b80604052505050565b600061191c82611850565b91507fffffffffffffffffffffffffffffffffffffffffffffffffffffffffffffffff82141561194f5761194e61195a565b5b600182019050919050565b7f4e487b7100000000000000000000000000000000000000000000000000000000600052601160045260246000fd5b7f4e487b7100000000000000000000000000000000000000000000000000000000600052601260045260246000fd5b7f4e487b7100000000000000000000000000000000000000000000000000000000600052602160045260246000fd5b7f4e487b7100000000000000000000000000000000000000000000000000000000600052602260045260246000fd5b7f4e487b7100000000000000000000000000000000000000000000000000000000600052604160045260246000fd5b6000601f19601f8301169050919050565b7f496e76616c696420746f7069632069642070617373656420696e000000000000600082015250565b7f4e6f7420612076616c6964206f7074696f6e0000000000000000000000000000600082015250565b7f566f74696e67206973206e6f7420636f6d706c65746500000000000000000000600082015250565b7f566f7465206d7573742062652063757272656e746c792072756e6e696e670000600082015250565b7f566f74652066756e6473206861766520616c7265616479206265656e2064697360008201527f7472696275746564000000000000000000000000000000000000000000000000602082015250565b7f596f75206861766520616c726561647920766f74656400000000000000000000600082015250565b7f596f7520617265206e6f742061206d656d626572206f66207468652044414f00600082015250565b60038110611bac57611bab6119b8565b5b50565b611bb8816117ff565b8114611bc357600080fd5b50565b611bcf81611811565b8114611bda57600080fd5b50565b611be681611850565b8114611bf157600080fd5b5056fea2646970667358221220a64455bf5a7b0ccd3a59bf000d142f14bbdf310d634df69c24b1ca70ae54d46864736f6c63430008040033",
  "linkReferences": {},
  "deployedLinkReferences": {}
}