{
  "_format": "hh-sol-artifact-1",
  "contractName": "Voting",
  "sourceName": "contracts/Voting.sol",
  "abi": [
    {
      "inputs": [],
      "stateMutability": "nonpayable",
      "type": "constructor"
    },
    {
      "inputs": [],
      "name": "RVotesAddr",
      "outputs": [
        {
          "internalType": "address",
          "name": "",
          "type": "address"
        }
      ],
      "stateMutability": "view",
      "type": "function"
    },
    {
      "inputs": [
        {
          "internalType": "string",
          "name": "ipfsHash",
          "type": "string"
        },
        {
          "internalType": "uint256",
          "name": "topicNumber",
          "type": "uint256"
        }
      ],
      "name": "addIPFStoMapping",
      "outputs": [],
      "stateMutability": "nonpayable",
      "type": "function"
    },
    {
      "inputs": [
        {
          "internalType": "address",
          "name": "owner",
          "type": "address"
        }
      ],
      "name": "balanceOf",
      "outputs": [
        {
          "internalType": "uint256",
          "name": "",
          "type": "uint256"
        }
      ],
      "stateMutability": "view",
      "type": "function"
    },
    {
      "inputs": [
        {
          "internalType": "string",
          "name": "_prompt",
          "type": "string"
        },
        {
          "internalType": "uint256",
          "name": "_numOptions",
          "type": "uint256"
        },
        {
          "internalType": "uint256",
          "name": "_votingDuration",
          "type": "uint256"
        }
      ],
      "name": "createTopic",
      "outputs": [],
      "stateMutability": "nonpayable",
      "type": "function"
    },
    {
      "inputs": [
        {
          "internalType": "uint256",
          "name": "topic_id",
          "type": "uint256"
        }
      ],
      "name": "distributeReputation",
      "outputs": [
        {
          "internalType": "bool",
          "name": "",
          "type": "bool"
        }
      ],
      "stateMutability": "nonpayable",
      "type": "function"
    },
    {
      "inputs": [
        {
          "internalType": "uint256",
          "name": "topic_id",
          "type": "uint256"
        }
      ],
      "name": "getState",
      "outputs": [
        {
          "internalType": "string",
          "name": "",
          "type": "string"
        }
      ],
      "stateMutability": "view",
      "type": "function"
    },
    {
      "inputs": [
        {
          "internalType": "uint256",
          "name": "",
          "type": "uint256"
        }
      ],
      "name": "hashFromTopicNum",
      "outputs": [
        {
          "internalType": "string",
          "name": "",
          "type": "string"
        }
      ],
      "stateMutability": "view",
      "type": "function"
    },
    {
      "inputs": [],
      "name": "nextTopicNumber",
      "outputs": [
        {
          "internalType": "uint256",
          "name": "",
          "type": "uint256"
        }
      ],
      "stateMutability": "view",
      "type": "function"
    },
    {
      "inputs": [
        {
          "internalType": "uint256",
          "name": "topic_id",
          "type": "uint256"
        }
      ],
      "name": "setState",
      "outputs": [],
      "stateMutability": "nonpayable",
      "type": "function"
    },
    {
      "inputs": [
        {
          "internalType": "uint256",
          "name": "",
          "type": "uint256"
        }
      ],
      "name": "topics",
      "outputs": [
        {
          "internalType": "string",
          "name": "prompt",
          "type": "string"
        },
        {
          "internalType": "uint256",
          "name": "numOptions",
          "type": "uint256"
        },
        {
          "internalType": "address",
          "name": "proposer",
          "type": "address"
        },
        {
          "internalType": "enum Voting.State",
          "name": "state",
          "type": "uint8"
        },
        {
          "internalType": "uint256",
          "name": "endBlock",
          "type": "uint256"
        },
        {
          "internalType": "bool",
          "name": "distributed",
          "type": "bool"
        },
        {
          "internalType": "string",
          "name": "ipfsHash",
          "type": "string"
        }
      ],
      "stateMutability": "view",
      "type": "function"
    },
    {
      "inputs": [
        {
          "internalType": "uint256",
          "name": "topic_id",
          "type": "uint256"
        },
        {
          "internalType": "uint256",
          "name": "optionNo",
          "type": "uint256"
        }
      ],
      "name": "vote",
      "outputs": [
        {
          "internalType": "bool",
          "name": "",
          "type": "bool"
        }
      ],
      "stateMutability": "nonpayable",
      "type": "function"
    }
  ],
  "bytecode": "0x608060405234801561001057600080fd5b50600060028190555073982a97cef32dfcc83015eca074fa8470d2e595e2600360006101000a81548173ffffffffffffffffffffffffffffffffffffffff021916908373ffffffffffffffffffffffffffffffffffffffff160217905550611e808061007d6000396000f3fe608060405234801561001057600080fd5b50600436106100a95760003560e01c806370a082311161007157806370a082311461017e578063751ef3af146101ae578063a9e966b7146101cc578063b384abef146101e8578063b4a4213f14610218578063caeb4ec214610234576100a9565b80630a5e47bb146100ae57806315175459146100ca57806318d9adab146100fa578063247c8f561461013057806344c9af281461014e575b600080fd5b6100c860048036038101906100c3919061152d565b610264565b005b6100e460048036038101906100df9190611594565b610479565b6040516100f191906117c2565b60405180910390f35b610114600480360381019061010f9190611594565b610519565b60405161012797969594939291906117e4565b60405180910390f35b6101386106a5565b604051610145919061178c565b60405180910390f35b61016860048036038101906101639190611594565b6106cb565b60405161017591906117c2565b60405180910390f35b61019860048036038101906101939190611487565b6108f6565b6040516101a59190611941565b60405180910390f35b6101b66109aa565b6040516101c39190611941565b60405180910390f35b6101e660048036038101906101e19190611594565b6109b0565b005b61020260048036038101906101fd91906115e6565b610b55565b60405161020f91906117a7565b60405180910390f35b610232600480360381019061022d91906114d9565b610f29565b005b61024e60048036038101906102499190611594565b610f85565b60405161025b91906117a7565b60405180910390f35b600360009054906101000a900473ffffffffffffffffffffffffffffffffffffffff1673ffffffffffffffffffffffffffffffffffffffff16632f54bf6e336040518263ffffffff1660e01b81526004016102bf919061178c565b60206040518083038186803b1580156102d757600080fd5b505afa1580156102eb573d6000803e3d6000fd5b505050506040513d601f19601f8201168201806040525081019061030f91906114b0565b61034e576040517f08c379a000000000000000000000000000000000000000000000000000000000815260040161034590611921565b60405180910390fd5b6000806000600254815260200190815260200160002090508381600001908051906020019061037e929190611328565b50828160010181905550338160020160006101000a81548173ffffffffffffffffffffffffffffffffffffffff021916908373ffffffffffffffffffffffffffffffffffffffff160217905550600f826103d89190611a24565b436103e391906119ce565b816003018190555060008160020160146101000a81548160ff02191690836002811115610439577f4e487b7100000000000000000000000000000000000000000000000000000000600052602160045260246000fd5b021790555060008160070160006101000a81548160ff0219169083151502179055506002600081548092919061046e90611b67565b919050555050505050565b6001602052806000526040600020600091509050805461049890611b04565b80601f01602080910402602001604051908101604052809291908181526020018280546104c490611b04565b80156105115780601f106104e657610100808354040283529160200191610511565b820191906000526020600020905b8154815290600101906020018083116104f457829003601f168201915b505050505081565b600060205280600052604060002060009150905080600001805461053c90611b04565b80601f016020809104026020016040519081016040528092919081815260200182805461056890611b04565b80156105b55780601f1061058a576101008083540402835291602001916105b5565b820191906000526020600020905b81548152906001019060200180831161059857829003601f168201915b5050505050908060010154908060020160009054906101000a900473ffffffffffffffffffffffffffffffffffffffff16908060020160149054906101000a900460ff16908060030154908060070160009054906101000a900460ff169080600801805461062290611b04565b80601f016020809104026020016040519081016040528092919081815260200182805461064e90611b04565b801561069b5780601f106106705761010080835404028352916020019161069b565b820191906000526020600020905b81548152906001019060200180831161067e57829003601f168201915b5050505050905087565b600360009054906101000a900473ffffffffffffffffffffffffffffffffffffffff1681565b60606002548210610711576040517f08c379a000000000000000000000000000000000000000000000000000000000815260040161070890611861565b60405180910390fd5b6000806000848152602001908152602001600020905060006002811115610761577f4e487b7100000000000000000000000000000000000000000000000000000000600052602160045260246000fd5b8160020160149054906101000a900460ff1660028111156107ab577f4e487b7100000000000000000000000000000000000000000000000000000000600052602160045260246000fd5b14156107ef576040518060400160405280600781526020017f52756e6e696e67000000000000000000000000000000000000000000000000008152509150506108f1565b60016002811115610829577f4e487b7100000000000000000000000000000000000000000000000000000000600052602160045260246000fd5b8160020160149054906101000a900460ff166002811115610873577f4e487b7100000000000000000000000000000000000000000000000000000000600052602160045260246000fd5b14156108b7576040518060400160405280600981526020017f436f6d706c6574656400000000000000000000000000000000000000000000008152509150506108f1565b6040518060400160405280600881526020017f43616e63656c65640000000000000000000000000000000000000000000000008152509150505b919050565b6000600360009054906101000a900473ffffffffffffffffffffffffffffffffffffffff1673ffffffffffffffffffffffffffffffffffffffff166370a08231836040518263ffffffff1660e01b8152600401610953919061178c565b60206040518083038186803b15801561096b57600080fd5b505afa15801561097f573d6000803e3d6000fd5b505050506040513d601f19601f820116820180604052508101906109a391906115bd565b9050919050565b60025481565b60025481106109f4576040517f08c379a00000000000000000000000000000000000000000000000000000000081526004016109eb90611861565b60405180910390fd5b60008060008381526020019081526020016000209050600280811115610a43577f4e487b7100000000000000000000000000000000000000000000000000000000600052602160045260246000fd5b8160020160149054906101000a900460ff166002811115610a8d577f4e487b7100000000000000000000000000000000000000000000000000000000600052602160045260246000fd5b1415610a995750610b52565b80600301544311610afc5760008160020160146101000a81548160ff02191690836002811115610af2577f4e487b7100000000000000000000000000000000000000000000000000000000600052602160045260246000fd5b0217905550610b50565b60018160020160146101000a81548160ff02191690836002811115610b4a577f4e487b7100000000000000000000000000000000000000000000000000000000600052602160045260246000fd5b02179055505b505b50565b60006002548310610b9b576040517f08c379a0000000000000000000000000000000000000000000000000000000008152600401610b9290611861565b60405180910390fd5b60008060008581526020019081526020016000209050610bba846109b0565b600083118015610bce575080600101548311155b610c0d576040517f08c379a0000000000000000000000000000000000000000000000000000000008152600401610c0490611881565b60405180910390fd5b60006002811115610c47577f4e487b7100000000000000000000000000000000000000000000000000000000600052602160045260246000fd5b8160020160149054906101000a900460ff166002811115610c91577f4e487b7100000000000000000000000000000000000000000000000000000000600052602160045260246000fd5b14610cd1576040517f08c379a0000000000000000000000000000000000000000000000000000000008152600401610cc8906118c1565b60405180910390fd5b600360009054906101000a900473ffffffffffffffffffffffffffffffffffffffff1673ffffffffffffffffffffffffffffffffffffffff16632f54bf6e336040518263ffffffff1660e01b8152600401610d2c919061178c565b60206040518083038186803b158015610d4457600080fd5b505afa158015610d58573d6000803e3d6000fd5b505050506040513d601f19601f82011682018060405250810190610d7c91906114b0565b610dbb576040517f08c379a0000000000000000000000000000000000000000000000000000000008152600401610db290611921565b60405180910390fd5b60008160050160003373ffffffffffffffffffffffffffffffffffffffff1673ffffffffffffffffffffffffffffffffffffffff1681526020019081526020016000205414610e3f576040517f08c379a0000000000000000000000000000000000000000000000000000000008152600401610e3690611901565b60405180910390fd5b828160050160003373ffffffffffffffffffffffffffffffffffffffff1673ffffffffffffffffffffffffffffffffffffffff1681526020019081526020016000208190555080600401339080600181540180825580915050600190039060005260206000200160009091909190916101000a81548173ffffffffffffffffffffffffffffffffffffffff021916908373ffffffffffffffffffffffffffffffffffffffff160217905550610ef3336108f6565b8160060160008581526020019081526020016000206000828254610f1791906119ce565b92505081905550600191505092915050565b6000806000838152602001908152602001600020905082816008019080519060200190610f57929190611328565b5082600160008481526020019081526020016000209080519060200190610f7f929190611328565b50505050565b600080610f9183611192565b9050600080600085815260200190815260200160002090508060070160009054906101000a900460ff1615610ffb576040517f08c379a0000000000000000000000000000000000000000000000000000000008152600401610ff2906118e1565b60405180910390fd5b60005b816004018054905081101561116957600082600401828154811061104b577f4e487b7100000000000000000000000000000000000000000000000000000000600052603260045260246000fd5b9060005260206000200160009054906101000a900473ffffffffffffffffffffffffffffffffffffffff16905060008360050160008373ffffffffffffffffffffffffffffffffffffffff1673ffffffffffffffffffffffffffffffffffffffff1681526020019081526020016000205490508481141561115457600360009054906101000a900473ffffffffffffffffffffffffffffffffffffffff1673ffffffffffffffffffffffffffffffffffffffff16630a430f67836040518263ffffffff1660e01b8152600401611121919061178c565b600060405180830381600087803b15801561113b57600080fd5b505af115801561114f573d6000803e3d6000fd5b505050505b5050808061116190611b67565b915050610ffe565b5060018160070160006101000a81548160ff021916908315150217905550600192505050919050565b600060025482106111d8576040517f08c379a00000000000000000000000000000000000000000000000000000000081526004016111cf90611861565b60405180910390fd5b600080600084815260200190815260200160002090506111f7836109b0565b60016002811115611231577f4e487b7100000000000000000000000000000000000000000000000000000000600052602160045260246000fd5b8160020160149054906101000a900460ff16600281111561127b577f4e487b7100000000000000000000000000000000000000000000000000000000600052602160045260246000fd5b146112bb576040517f08c379a00000000000000000000000000000000000000000000000000000000081526004016112b2906118a1565b60405180910390fd5b6000806000600190505b8360010154811161131c5781846006016000838152602001908152602001600020541115611309578092508360060160008281526020019081526020016000205491505b808061131490611b67565b9150506112c5565b50819350505050919050565b82805461133490611b04565b90600052602060002090601f016020900481019282611356576000855561139d565b82601f1061136f57805160ff191683800117855561139d565b8280016001018555821561139d579182015b8281111561139c578251825591602001919060010190611381565b5b5090506113aa91906113ae565b5090565b5b808211156113c75760008160009055506001016113af565b5090565b60006113de6113d984611981565b61195c565b9050828152602081018484840111156113f657600080fd5b611401848285611ac2565b509392505050565b60008135905061141881611e05565b92915050565b60008151905061142d81611e1c565b92915050565b600082601f83011261144457600080fd5b81356114548482602086016113cb565b91505092915050565b60008135905061146c81611e33565b92915050565b60008151905061148181611e33565b92915050565b60006020828403121561149957600080fd5b60006114a784828501611409565b91505092915050565b6000602082840312156114c257600080fd5b60006114d08482850161141e565b91505092915050565b600080604083850312156114ec57600080fd5b600083013567ffffffffffffffff81111561150657600080fd5b61151285828601611433565b92505060206115238582860161145d565b9150509250929050565b60008060006060848603121561154257600080fd5b600084013567ffffffffffffffff81111561155c57600080fd5b61156886828701611433565b93505060206115798682870161145d565b925050604061158a8682870161145d565b9150509250925092565b6000602082840312156115a657600080fd5b60006115b48482850161145d565b91505092915050565b6000602082840312156115cf57600080fd5b60006115dd84828501611472565b91505092915050565b600080604083850312156115f957600080fd5b60006116078582860161145d565b92505060206116188582860161145d565b9150509250929050565b61162b81611a55565b82525050565b61163a81611a67565b82525050565b61164981611ab0565b82525050565b600061165a826119b2565b61166481856119bd565b9350611674818560208601611ad1565b61167d81611c9b565b840191505092915050565b6000611695601a836119bd565b91506116a082611cac565b602082019050919050565b60006116b86012836119bd565b91506116c382611cd5565b602082019050919050565b60006116db6016836119bd565b91506116e682611cfe565b602082019050919050565b60006116fe601e836119bd565b915061170982611d27565b602082019050919050565b60006117216028836119bd565b915061172c82611d50565b604082019050919050565b60006117446016836119bd565b915061174f82611d9f565b602082019050919050565b6000611767601f836119bd565b915061177282611dc8565b602082019050919050565b61178681611aa6565b82525050565b60006020820190506117a16000830184611622565b92915050565b60006020820190506117bc6000830184611631565b92915050565b600060208201905081810360008301526117dc818461164f565b905092915050565b600060e08201905081810360008301526117fe818a61164f565b905061180d602083018961177d565b61181a6040830188611622565b6118276060830187611640565b611834608083018661177d565b61184160a0830185611631565b81810360c0830152611853818461164f565b905098975050505050505050565b6000602082019050818103600083015261187a81611688565b9050919050565b6000602082019050818103600083015261189a816116ab565b9050919050565b600060208201905081810360008301526118ba816116ce565b9050919050565b600060208201905081810360008301526118da816116f1565b9050919050565b600060208201905081810360008301526118fa81611714565b9050919050565b6000602082019050818103600083015261191a81611737565b9050919050565b6000602082019050818103600083015261193a8161175a565b9050919050565b6000602082019050611956600083018461177d565b92915050565b6000611966611977565b90506119728282611b36565b919050565b6000604051905090565b600067ffffffffffffffff82111561199c5761199b611c6c565b5b6119a582611c9b565b9050602081019050919050565b600081519050919050565b600082825260208201905092915050565b60006119d982611aa6565b91506119e483611aa6565b9250827fffffffffffffffffffffffffffffffffffffffffffffffffffffffffffffffff03821115611a1957611a18611bb0565b5b828201905092915050565b6000611a2f82611aa6565b9150611a3a83611aa6565b925082611a4a57611a49611bdf565b5b828204905092915050565b6000611a6082611a86565b9050919050565b60008115159050919050565b6000819050611a8182611df1565b919050565b600073ffffffffffffffffffffffffffffffffffffffff82169050919050565b6000819050919050565b6000611abb82611a73565b9050919050565b82818337600083830152505050565b60005b83811015611aef578082015181840152602081019050611ad4565b83811115611afe576000848401525b50505050565b60006002820490506001821680611b1c57607f821691505b60208210811415611b3057611b2f611c3d565b5b50919050565b611b3f82611c9b565b810181811067ffffffffffffffff82111715611b5e57611b5d611c6c565b5b80604052505050565b6000611b7282611aa6565b91507fffffffffffffffffffffffffffffffffffffffffffffffffffffffffffffffff821415611ba557611ba4611bb0565b5b600182019050919050565b7f4e487b7100000000000000000000000000000000000000000000000000000000600052601160045260246000fd5b7f4e487b7100000000000000000000000000000000000000000000000000000000600052601260045260246000fd5b7f4e487b7100000000000000000000000000000000000000000000000000000000600052602160045260246000fd5b7f4e487b7100000000000000000000000000000000000000000000000000000000600052602260045260246000fd5b7f4e487b7100000000000000000000000000000000000000000000000000000000600052604160045260246000fd5b6000601f19601f8301169050919050565b7f496e76616c696420746f7069632069642070617373656420696e000000000000600082015250565b7f4e6f7420612076616c6964206f7074696f6e0000000000000000000000000000600082015250565b7f566f74696e67206973206e6f7420636f6d706c65746500000000000000000000600082015250565b7f566f7465206d7573742062652063757272656e746c792072756e6e696e670000600082015250565b7f566f74652066756e6473206861766520616c7265616479206265656e2064697360008201527f7472696275746564000000000000000000000000000000000000000000000000602082015250565b7f596f75206861766520616c726561647920766f74656400000000000000000000600082015250565b7f596f7520617265206e6f742061206d656d626572206f66207468652044414f00600082015250565b60038110611e0257611e01611c0e565b5b50565b611e0e81611a55565b8114611e1957600080fd5b50565b611e2581611a67565b8114611e3057600080fd5b50565b611e3c81611aa6565b8114611e4757600080fd5b5056fea26469706673582212208199a18bf1cb548f18d7d1854a8eb70568701a809871d8385a47836999041b0864736f6c63430008040033",
  "linkReferences": {},
  "deployedLinkReferences": {}
}