{
  "_format": "hh-sol-artifact-1",
  "contractName": "Badge",
  "sourceName": "contracts/Badge.sol",
  "abi": [
    {
      "inputs": [
        {
          "internalType": "string",
          "name": "name_",
          "type": "string"
        },
        {
          "internalType": "string",
          "name": "symbol_",
          "type": "string"
        }
      ],
      "stateMutability": "nonpayable",
      "type": "constructor"
    },
    {
      "anonymous": false,
      "inputs": [
        {
          "indexed": true,
          "internalType": "address",
          "name": "owner",
          "type": "address"
        },
        {
          "indexed": true,
          "internalType": "bytes32",
          "name": "tokenId",
          "type": "bytes32"
        },
        {
          "indexed": false,
          "internalType": "uint256",
          "name": "timestamp",
          "type": "uint256"
        }
      ],
      "name": "Burned",
      "type": "event"
    },
    {
      "anonymous": false,
      "inputs": [
        {
          "indexed": true,
          "internalType": "address",
          "name": "to",
          "type": "address"
        },
        {
          "indexed": true,
          "internalType": "bytes32",
          "name": "tokenId",
          "type": "bytes32"
        },
        {
          "indexed": false,
          "internalType": "uint256",
          "name": "timestamp",
          "type": "uint256"
        }
      ],
      "name": "Minted",
      "type": "event"
    },
    {
      "anonymous": false,
      "inputs": [
        {
          "indexed": true,
          "internalType": "address",
          "name": "owner",
          "type": "address"
        },
        {
          "indexed": true,
          "internalType": "bytes32",
          "name": "tokenId",
          "type": "bytes32"
        },
        {
          "indexed": false,
          "internalType": "uint256",
          "name": "timestamp",
          "type": "uint256"
        }
      ],
      "name": "Updated",
      "type": "event"
    },
    {
      "inputs": [],
      "name": "URI",
      "outputs": [
        {
          "internalType": "string",
          "name": "",
          "type": "string"
        }
      ],
      "stateMutability": "view",
      "type": "function"
    },
    {
      "inputs": [],
      "name": "name",
      "outputs": [
        {
          "internalType": "string",
          "name": "",
          "type": "string"
        }
      ],
      "stateMutability": "view",
      "type": "function"
    },
    {
      "inputs": [
        {
          "internalType": "bytes32",
          "name": "tokenId",
          "type": "bytes32"
        }
      ],
      "name": "ownerOf",
      "outputs": [
        {
          "internalType": "address",
          "name": "",
          "type": "address"
        }
      ],
      "stateMutability": "view",
      "type": "function"
    },
    {
      "inputs": [],
      "name": "symbol",
      "outputs": [
        {
          "internalType": "string",
          "name": "",
          "type": "string"
        }
      ],
      "stateMutability": "view",
      "type": "function"
    },
    {
      "inputs": [
        {
          "internalType": "address",
          "name": "owner",
          "type": "address"
        }
      ],
      "name": "tokenOf",
      "outputs": [
        {
          "components": [
            {
              "internalType": "bytes32",
              "name": "id",
              "type": "bytes32"
            },
            {
              "internalType": "uint256",
              "name": "timestamp",
              "type": "uint256"
            }
          ],
          "internalType": "struct IBadge.Token",
          "name": "",
          "type": "tuple"
        }
      ],
      "stateMutability": "view",
      "type": "function"
    }
  ],
  "bytecode": "0x60806040523480156200001157600080fd5b5060405162000bf138038062000bf1833981810160405281019062000037919062000193565b81600090805190602001906200004f92919062000071565b5080600190805190602001906200006892919062000071565b50505062000376565b8280546200007f906200029b565b90600052602060002090601f016020900481019282620000a35760008555620000ef565b82601f10620000be57805160ff1916838001178555620000ef565b82800160010185558215620000ef579182015b82811115620000ee578251825591602001919060010190620000d1565b5b509050620000fe919062000102565b5090565b5b808211156200011d57600081600090555060010162000103565b5090565b60006200013862000132846200022f565b62000206565b9050828152602081018484840111156200015157600080fd5b6200015e84828562000265565b509392505050565b600082601f8301126200017857600080fd5b81516200018a84826020860162000121565b91505092915050565b60008060408385031215620001a757600080fd5b600083015167ffffffffffffffff811115620001c257600080fd5b620001d08582860162000166565b925050602083015167ffffffffffffffff811115620001ee57600080fd5b620001fc8582860162000166565b9150509250929050565b60006200021262000225565b9050620002208282620002d1565b919050565b6000604051905090565b600067ffffffffffffffff8211156200024d576200024c62000336565b5b620002588262000365565b9050602081019050919050565b60005b838110156200028557808201518184015260208101905062000268565b8381111562000295576000848401525b50505050565b60006002820490506001821680620002b457607f821691505b60208210811415620002cb57620002ca62000307565b5b50919050565b620002dc8262000365565b810181811067ffffffffffffffff82111715620002fe57620002fd62000336565b5b80604052505050565b7f4e487b7100000000000000000000000000000000000000000000000000000000600052602260045260246000fd5b7f4e487b7100000000000000000000000000000000000000000000000000000000600052604160045260246000fd5b6000601f19601f8301169050919050565b61086b80620003866000396000f3fe608060405234801561001057600080fd5b50600436106100575760003560e01c806306fdde031461005c5780631141d7de1461007a57806342ec38e2146100985780637dd56411146100c857806395d89b41146100f8575b600080fd5b610064610116565b6040516100719190610631565b60405180910390f35b6100826101a8565b60405161008f9190610631565b60405180910390f35b6100b260048036038101906100ad91906104e9565b61023a565b6040516100bf9190610693565b60405180910390f35b6100e260048036038101906100dd9190610512565b610317565b6040516100ef9190610616565b60405180910390f35b610100610410565b60405161010d9190610631565b60405180910390f35b60606000805461012590610743565b80601f016020809104026020016040519081016040528092919081815260200182805461015190610743565b801561019e5780601f106101735761010080835404028352916020019161019e565b820191906000526020600020905b81548152906001019060200180831161018157829003601f168201915b5050505050905090565b6060600280546101b790610743565b80601f01602080910402602001604051908101604052809291908181526020018280546101e390610743565b80156102305780601f1061020557610100808354040283529160200191610230565b820191906000526020600020905b81548152906001019060200180831161021357829003601f168201915b5050505050905090565b6102426104a2565b600073ffffffffffffffffffffffffffffffffffffffff168273ffffffffffffffffffffffffffffffffffffffff1614156102b2576040517f08c379a00000000000000000000000000000000000000000000000000000000081526004016102a990610673565b60405180910390fd5b600460008373ffffffffffffffffffffffffffffffffffffffff1673ffffffffffffffffffffffffffffffffffffffff168152602001908152602001600020604051806040016040529081600082015481526020016001820154815250509050919050565b60008060001b82141561035f576040517f08c379a000000000000000000000000000000000000000000000000000000000815260040161035690610653565b60405180910390fd5b60006003600084815260200190815260200160002060009054906101000a900473ffffffffffffffffffffffffffffffffffffffff169050600073ffffffffffffffffffffffffffffffffffffffff168173ffffffffffffffffffffffffffffffffffffffff161415610407576040517f08c379a00000000000000000000000000000000000000000000000000000000081526004016103fe90610673565b60405180910390fd5b80915050919050565b60606001805461041f90610743565b80601f016020809104026020016040519081016040528092919081815260200182805461044b90610743565b80156104985780601f1061046d57610100808354040283529160200191610498565b820191906000526020600020905b81548152906001019060200180831161047b57829003601f168201915b5050505050905090565b604051806040016040528060008019168152602001600081525090565b6000813590506104ce81610807565b92915050565b6000813590506104e38161081e565b92915050565b6000602082840312156104fb57600080fd5b6000610509848285016104bf565b91505092915050565b60006020828403121561052457600080fd5b6000610532848285016104d4565b91505092915050565b610544816106ca565b82525050565b610553816106dc565b82525050565b6000610564826106ae565b61056e81856106b9565b935061057e818560208601610710565b610587816107a4565b840191505092915050565b600061059f6015836106b9565b91506105aa826107b5565b602082019050919050565b60006105c2601d836106b9565b91506105cd826107de565b602082019050919050565b6040820160008201516105ee600085018261054a565b5060208201516106016020850182610607565b50505050565b61061081610706565b82525050565b600060208201905061062b600083018461053b565b92915050565b6000602082019050818103600083015261064b8184610559565b905092915050565b6000602082019050818103600083015261066c81610592565b9050919050565b6000602082019050818103600083015261068c816105b5565b9050919050565b60006040820190506106a860008301846105d8565b92915050565b600081519050919050565b600082825260208201905092915050565b60006106d5826106e6565b9050919050565b6000819050919050565b600073ffffffffffffffffffffffffffffffffffffffff82169050919050565b6000819050919050565b60005b8381101561072e578082015181840152602081019050610713565b8381111561073d576000848401525b50505050565b6000600282049050600182168061075b57607f821691505b6020821081141561076f5761076e610775565b5b50919050565b7f4e487b7100000000000000000000000000000000000000000000000000000000600052602260045260246000fd5b6000601f19601f8301169050919050565b7f496e76616c696420746f6b656e49642076616c75650000000000000000000000600082015250565b7f496e76616c6964206f776e6572206174207a65726f2061646472657373000000600082015250565b610810816106ca565b811461081b57600080fd5b50565b610827816106dc565b811461083257600080fd5b5056fea264697066735822122003fcf11056c2d16f2f04d3cc7f9928489b0f527871072c3a0240650b219082b564736f6c63430008040033",
  "linkReferences": {},
  "deployedLinkReferences": {}
}